:020000040800F2
:1000000010120020D9090008654A0008714A00084A
:10001000794A0008814A0008894A00080000000067
:10002000000000000000000000000000914A0008ED
:100030009D4A000800000000A94A000811100008AD
:10004000410A0008410A0008410A0008410A000864
:10005000410A0008410A0008410A0008410A000854
:10006000410A0008410A0008410A0008410A000844
:10007000410A0008410A0008410A0008410A000834
:10008000410A0008410A0008014B0008410A000823
:10009000410A0008410A0008410A0008194B0008FB
:1000A000410A00088D0F0008410A0008410A0008B3
:1000B000C14A0008E14A0008F9050008410A0008A1
:1000C000410A0008410A0008410A0008410A0008E4
:1000D0000D4B0008B54A0008410A0008410A000813
:1000E000410A0008410A0008410A00080000000017
:1000F0000000000000000000000000000000000000
:1001000000000000000000005FF808F180B592B028
:1001100000AFAF4BAE4AD26942F08152DA61AC4BCC
:10012000AB4A926942F01D029A61AA4BA94A5268F1
:1001300022F0E0625A60A74BA64A526842F0007271
:100140005A6000F091FF4FF0100387F847304FF0EE
:10015000030387F846304FF00403A7F8443007F153
:1001600044039D48194605F05DFE9B484FF004018D
:1001700005F0B4FF4FF40063A7F8443007F14403DF
:100180009548194605F04EFE93484FF4006105F07E
:10019000A5FF4FF48063A7F8443007F144038E486D
:1001A000194605F03FFE8C484FF4806105F096FF3C
:1001B00001F098F84FF400604FF0010107F0F4F8F7
:1001C0004FF6FF733B874FF00003BB864FF00003F1
:1001D0007B874FF01003FB864FF0000387F83C301D
:1001E00007F134037D48194607F030FF7B484FF094
:1001F00050014FF002024FF00F0308F02BFC77483C
:100200004FF0000109F03CFA4FF0190387F8403035
:100210004FF0010387F841304FF0010387F8423077
:100220004FF0010387F8433007F14003184604F00C
:1002300059FB6A484FF001014FF0010208F070FBD2
:1002400066484FF0010108F023FB4FF48073A7F8D4
:1002500044304FF0040387F847304FF0030387F82A
:10026000463007F144035E48194605F0DBFD4FF0C8
:1002700002004FF0010107F0B9F840F60F633B8729
:100280004FF00A03BB864FF000037B874FF000035B
:10029000FB8607F134035348194607F0D7FE4FF0A9
:1002A0003003BB844FF00103FB844FF000037B85D8
:1002B0004FF00003BB8507F124034A48194607F0B5
:1002C00041FF49484FF0010105F098FF4FF010033E
:1002D000A7F844304FF0180387F847304FF0030376
:1002E00087F8463007F144033B48194605F09AFD6C
:1002F0003C484FF0000108F0CBFA4FF004004FF0FB
:10030000010107F073F84FF063033B874FF4E153AB
:10031000BB864FF000037B874FF00003FB8607F19D
:1003200034033248194607F091FE4FF01E0387F858
:1003300040304FF0010387F841304FF0020387F857
:1003400042304FF0010387F8433007F1400318466D
:1003500004F0C8FA25484FF001014FF0010208F0FF
:10036000DFFA22484FF0010108F092FA204806F027
:1003700023F84FF400104FF0010107F037F84FF069
:10038000030387F846304FF01C0387F847304FF0DF
:100390008003A7F8443007F144030F48194605F0DD
:1003A00041FD4FF04003A7F8443007F144030A48E9
:1003B000194605F037FD0F4B7B614FF000033B837F
:1003C0004BF6FF737B834FF0A003BB8314E000BFA9
:1003D0000010024000000140000C0140002C0140D0
:1003E000000801400004004000081A000008004016
:1003F00000540040A08601004FF48063FB834FF45B
:1004000080433B8407F114032948194605F0FCFF9B
:1004100027484FF0010106F0F1F84FF480404FF00B
:10042000010106F0C1FF4FF0030387F846304FF09B
:10043000180387F847304FF40073A7F8443007F1EA
:1004400044031C48194605F0EDFC4FF0030387F800
:1004500046304FF0040387F847304FF48063A7F825
:10046000443007F144031348194605F0DBFC4FF410
:1004700016537B604FF000033B814FF000037B81FC
:100480004FF00003BB814FF00C03FB814FF00003E2
:100490003B8207F104030848194609F0F9FC0648B5
:1004A0004FF0010109F038FE07F14807BD4680BD55
:1004B00000540040000801400038014080B483B07F
:1004C00000AF0346FB71FB7903F00103DBB2002BA5
:1004D00003D00D4B4FF004021A61FB7903F00203C5
:1004E000002B03D0084B4FF400621A61FB7903F034
:1004F0000403002B03D0044B4FF480621A6107F110
:100500000C07BD4680BC7047000C014080B483B02E
:1005100000AF0346FB71FB7903F00103DBB2002B54
:1005200003D00D4B4FF004025A61FB7903F0020334
:10053000002B03D0084B4FF400625A61FB7903F0A3
:100540000403002B03D0044B4FF480625A6107F17F
:100550000C07BD4680BC7047000C014080B483B0DE
:1005600000AF0346FB71FB7903F00103DBB2002B04
:1005700006D0114B104AD26882F00402DA6016E00D
:10058000FB7903F00203002B06D00B4B0A4AD2681A
:1005900082F40062DA600AE0FB7903F00403002BC6
:1005A00005D0054B044AD26882F48062DA6007F114
:1005B0000C07BD4680BC7047000C014080B582B07E
:1005C00000AF0346FB71FB79012B09D1094B4FF0BA
:1005D00000029A8407484FF0010108F059F904E03D
:1005E00004484FF0000108F053F907F10807BD4631
:1005F00080BD00BF0004004080B500AF274B274AF4
:10060000128A92B222F0010292B21A82244B1B7813
:10061000002B42D0224B1B7803F10103DAB2204BAE
:100620001A701F4B1A781F4B1B789A4235D31E4BFA
:100630001B7803F10103DAB21B4B1A701A4B1A78BC
:100640001A4B1B789A4220D2154B4FF001021A70B8
:10065000174B1A68144B1B7803F101034FEA43034D
:10066000D3181A780F4B1A70124B114A11680E4AA0
:1006700012784FEA420202F101028A1812781146FA
:100680000D4A32F811209A8507E0054B4FF0000221
:100690001A704FF00000FFF791FF80BD0008004086
:1006A000580600209C060020590600205A0600200B
:1006B000A00600200004004084E5000880B584B056
:1006C00000AF7860154B7A681A60154B4FF0000246
:1006D0001A70124B1B681A78124B1A70124B4FF09B
:1006E00001021A700D4B1B6803F102031A780F4BBD
:1006F0001A700A4B1B6803F101031B78FB730C4B48
:10070000F97B0C4A32F811209A854FF00100FFF76F
:1007100055FF07F11007BD4680BD00BFA0060020B1
:10072000590600205A060020580600209C0600208A
:100730000004004084E5000880B483B000AF0346A5
:10074000FB7107F10C07BD4680BC70474FF00004F9
:10075000EFF309842046704723461846034683F387
:10076000098870474FF00004EFF308842046704773
:1007700023461846034683F30888704790B482B036
:1007800000AF4FF000037B60EFF312847C607B6866
:10079000184607F10807BD4690BC704780B483B087
:1007A00000AF78607B6883F3118807F10C07BD46C2
:1007B00080BC704790B482B000AF4FF000037B6004
:1007C000EFF310847C607B68184607F10807BD468C
:1007D00090BC704780B483B000AF78607B6883F3CF
:1007E000108807F10C07BD4680BC704790B482B0FA
:1007F00000AF4FF000037B60EFF313847C607B68F5
:10080000184607F10807BD4690BC704780B483B016
:1008100000AF78607B6883F3138807F10C07BD464F
:1008200080BC704790B482B000AF4FF000037B6093
:10083000EFF314847C607B68184607F10807BD4617
:1008400090BC704780B483B000AF78607B6883F35E
:10085000148807F10C07BD4680BC704790B484B083
:1008600000AF78604FF00003FB607B681CBAFC604F
:10087000FB68184607F11007BD4690BC704700BFE3
:1008800090B484B000AF0346FB804FF00003FB60E0
:10089000FB885CBAFC60FB68184607F11007BD4690
:1008A00090BC704790B484B000AF0346FB804FF01B
:1008B0000003FB60FB88DCBAFC60FB68184607F1AC
:1008C0001007BD4690BC704790B484B000AF78600C
:1008D0004FF00003FB607B6893FAA3F4FC60FB68B5
:1008E000184607F11007BD4690BC704790B484B01D
:1008F00000AF78604FF00003FB737B68D3E84F4F85
:10090000FC73FB7B184607F11007BD4690BC70478F
:1009100090B484B000AF78604FF00003FB817B6837
:10092000D3E85F4FFC81FB89184607F11007BD46ED
:1009300090BC704790B484B000AF78604FF0000373
:10094000FB607B6853E8004FFC60FB68184607F1CA
:100950001007BD4690BC704790B484B000AF03460A
:100960003960FB714FF00003FB603B68FA79C3E824
:10097000442FFC60FB68184607F11007BD4690BC89
:10098000704700BF90B484B000AF03463960FB806D
:100990004FF00003FB603B68FA88C3E8542FFC600B
:1009A000FB68184607F11007BD4690BC704700BFB2
:1009B00090B484B000AF786039604FF00003FB6002
:1009C0003B687A6843E80024FC60FB68184607F13E
:1009D0001007BD4690BC704780B582B000AF134B86
:1009E0007B60134B3B600BE07B681A683B681A60C6
:1009F0003B6803F104033B607B6803F104037B6005
:100A00003A680C4B9A42EFD30B480C494FF0000266
:100A10008842B8BF40F8042BFADB00F015F802F06A
:100A200053F807F10807BD4680BD00BF44FD00082C
:100A30000000002054060020580600200C0E002064
:100A400080B400AFFEE700BF80B500AF154B154A7C
:100A5000126842F001021A60124A124B5968124B96
:100A600001EA030353600F4A0E4B1B6823F08473A3
:100A700023F4803313600B4B0A4A126822F480225D
:100A80001A60084B074A526822F4FE025A60054B6E
:100A90004FF41F029A6000F07DF8044B4FF00062A3
:100AA0009A6080BD001002400000FFF800ED00E0F9
:100AB00080B485B000AF4FF00003FB604FF000033F
:100AC000BB604FF000037B602D4B5B6803F00C03B1
:100AD000FB60FB68042B07D0082B09D0002B35D115
:100AE000284B294A1A6035E0264B274A1A6031E024
:100AF000234B5B6803F47013BB60214B5B6803F40A
:100B000080337B60BB684FEA934303F10203BB6011
:100B10007B68002B06D1BB681C4A02FB03F2194B11
:100B20001A6017E0164B5B6803F40033002B06D005
:100B3000BB68164A02FB03F2124B1A600AE0BB685C
:100B4000114A02FB03F20F4B1A6003E00D4B0E4AF1
:100B50001A6000BF0A4B5B6803F0F0034FEA1313FF
:100B60000B4AD35CDBB2FB60064B1A68FB6822FAC7
:100B700003F2044B1A6007F11407BD4680BC7047AE
:100B8000001002401000002000127A0000093D0011
:100B90001400002080B500AF00F002F880BD00BF57
:100BA00080B483B000AF4FF000037B604FF00003D0
:100BB0003B603B4B3A4A126842F480321A60384B31
:100BC0001B6803F400333B607B6803F101037B6027
:100BD0003B68002B03D17B68B3F5A06FEFD1304B9E
:100BE0001B6803F40033002B03D04FF001033B607C
:100BF00002E04FF000033B603B68012B4BD1294BD7
:100C0000284A126842F010021A60264B254A1268E0
:100C100022F003021A60234B224A126842F00202B9
:100C20001A601F4B1E4A52685A601D4B1C4A52687C
:100C30005A601B4B1A4A526842F480625A60184B41
:100C4000174A526822F47C125A60154B144A5268B3
:100C500042F4E8125A60124B114A126842F0807254
:100C60001A6000BF0E4B1B6803F00073002BF9D015
:100C70000B4B0B4A526822F003025A60084B084A99
:100C8000526842F002025A6000BF054B5B6803F0F5
:100C90000C03082BF9D107F10C07BD4680BC704747
:100CA0000010024000200240B0B590B000AF786064
:100CB0004FF000024FF00003C7E90E234FF000028F
:100CC0004FF00003C7E90C234FF000024FF0000380
:100CD000C7E90A234FF000024FF00003C7E90823D9
:100CE0004FF000024FF00003C7E906237B6893F83A
:100CF0003C30FB75FB7D092B11D8FB7D504A4FEA38
:100D0000C303D318D3E90023C7E90C23FB7D4D4A65
:100D10004FEAC303D318D3E90023C7E908237B684C
:100D200093F88430FB75FB7D042B08D8FB7D464A85
:100D30004FEAC303D318D3E90023C7E90A237B682A
:100D400093F8CC30FB75FB7D012B08D8FB7D3F4A27
:100D50004FEAC303D318D3E90023C7E90E237B6806
:100D600093F81431FB75FB7D012B08D8FB7D384AC5
:100D70004FEAC303D318D3E90023C7E90623354B51
:100D80001B78184609F0D0FE02460B46104619465D
:100D90004FF000024FF0804303F5B2030AF064F80D
:100DA00002460B461046194623A3D3E9002309F057
:100DB00031FF02460B4610461946D7E9082309F0D1
:100DC00029FF02460B4610461946D7E90C2309F0C5
:100DD00021FF02460B4610461946D7E90C2309F0BD
:100DE00019FF02460B4614461D46D7E90E01D7E906
:100DF0000C2309F05BFD02460B4610461946D7E965
:100E00000A2309F053FD02460B462046294609F005
:100E100001FF02460B46C7E90223D7E90201D7E9E1
:100E200006230AF021F802460B460A49C1E90223CB
:100E300007F14007BD46B0BD0726378AAC35643F91
:100E400038000020B000002088000020280000208A
:100E500000010020A806002080B584B000AF7860B3
:100E6000786809F061FE02460B46104619464FF0BD
:100E700000024FF0804303F5001309F0CBFE024659
:100E80000B4610461946094BD3E9022309F0ECFF43
:100E900002460B46C7E90223D7E902010AF0CCF863
:100EA0000346184607F11007BD4680BDA80600207E
:100EB00080B400AF024B1846BD4680BC704700BFEF
:100EC000A806002080B582B000AF78607B684FEA4A
:100ED00013439AB20A4B1A800A4B7A6892B29A84E8
:100EE000084B084A128892B242F0010292B21A806C
:100EF0004FF00400FFF7E2FA07F10807BD4680BD96
:100F00005C060020002C014080B483B000AF094B88
:100F10001B889BB24FEA0342074B9B8C9BB242EA71
:100F200003037B607B68184607F10C07BD4680BC55
:100F3000704700BF5C060020002C014080B584B0E3
:100F400000AF7860786809F0EFFD0F4BD3E902231A
:100F500009F060FE02460B46104619464FF00002AB
:100F60004FF0804303F5001309F07EFF02460B4665
:100F7000104619460AF060F80346FB60FB68184605
:100F800007F11007BD4680BDA806002080B500AF60
:100F9000134B134A128A92B222F0010292B21A82C1
:100FA000104B1B889BB2002B10D10D4B0C4A1288A2
:100FB00092B222F0010292B21A80094B4FF0000265
:100FC0009A844FF00400FFF7A1FA07E0054B1B8855
:100FD0009BB203F1FF339AB2024B1A8080BD00BF6F
:100FE000002C01405C06002080B483B000AF786024
:100FF000064B7A681A6000BF044B1B68002BFBD1BC
:1010000007F10C07BD4680BC704700BFB806002042
:1010100080B400AF094B1B68002B05D0074B1B6841
:1010200003F1FF32054B1A60054B1B6803F1010207
:10103000034B1A60BD4680BC704700BFB806002055
:10104000BC06002080B483B000AF0346FB71FA7980
:10105000044B53F82230184607F10C07BD4680BCFC
:10106000704700BF1001002080B582B000AF4FF084
:101070004803FB714FF00303BB714FF48043BB8007
:1010800007F104032348194604F0CCFE4FF4004353
:10109000BB8007F104031F48194604F0C3FE4FF458
:1010A0000053BB8007F104031A48194604F0BAFE46
:1010B0004FF00103BB8007F104031748194604F001
:1010C000B1FE4FF00403BB8007F104031248194638
:1010D00004F0A8FE4FF00203BB8007F104030E48A2
:1010E000194604F09FFE4FF00803BB8007F104038C
:1010F0000948194604F096FE4FF01003BB8007F133
:1011000004030548194604F08DFE07F10807BD46A3
:1011100080BD00BF001001400008014080B483B0D2
:1011200000AF4FF00003FB712B4B9B6803F480432F
:10113000002B03D1FB7943F00103FB71264B9B6825
:1011400003F40043002B03D1FB7943F00203FB714E
:10115000214B9B6803F40053002B03D1FB7943F030
:101160000403FB711D4B9B6803F00103002B03D1AB
:10117000FB7943F00803FB71184B9B6803F00403F1
:10118000002B03D1FB7943F01003FB71134B9B68D9
:1011900003F00203002B03D1FB7943F02003FB7122
:1011A0000E4B9B6803F00803002B03D1FB7943F03F
:1011B0004003FB71094B9B6803F01003002B03D124
:1011C000FB7963F07F03FB71FB79184607F10C078D
:1011D000BD4680BC704700BF0010014000080140C0
:1011E00080B582B000AF4FF00003FB7100E000BF9C
:1011F000FFF794FF0346FB71FB79002BF7D04FF00C
:101200003200FFF7F1FEFB79184607F10807BD46EB
:1012100080BD00BF80B500AF00E000BF4FF03200DE
:10122000FFF7E2FEFFF77AFF0346002BF5D100BF80
:1012300080BD00BF80B582B000AF0346FB710C4893
:101240004FF4804104F04AFFFB799BB209481946EC
:1012500006F02CFC00BF07484FF0800106F01AFD95
:101260000346002BF7D107F10807BD4680BD00BF3C
:10127000000C01400038004080B582B000AF03464A
:10128000FB710C484FF4804104F01AFFFB799BB2CC
:101290000948194606F00AFC00BF07484FF08001D4
:1012A00006F0F8FC0346002BF7D107F10807BD460E
:1012B00080BD00BF000C01400038004080B500AF89
:1012C00002484FF4805104F009FF80BD000C01403A
:1012D00080B500AF02484FF4805104F0F1FE80BDAC
:1012E000000C014080B586B000AF4FF01003FB75D5
:1012F0004FF00303BB754FF40043BB8207F11403A7
:101300003848194604F08EFD36484FF4004104F089
:10131000D7FE4FF48053BB8207F1140332481946BD
:1013200004F080FD30484FF4805104F0C9FE4FF4C2
:101330008043BB8207F114032B48194604F072FD69
:1013400029484FF4804104F0BBFE4FF01803FB75B1
:101350004FF00303BB754FF40053BB8207F1140336
:101360002148194604F05EFD4FF40043BB8207F1AB
:1013700014031D48194604F055FD4FF480404FF00A
:10138000010106F033F819484FF4807106F0AAFB0A
:101390004FF440433B804FF482737B804FF0000357
:1013A000BB804FF00003FB804FF000033B814FF404
:1013B00000737B814FF02003BB814FF00003FB8162
:1013C0004FF007033B823B460848194606F064F994
:1013D00006484FF0010106F0CBFA07F11807BD46A9
:1013E00080BD00BF00080140000C014000380040F3
:1013F00080B58AB000AFF860B9607A604FF0000342
:1014000087F827304FF00003BB617B681B687B6166
:101410004FF00003FB616AE04FF000033B625CE0C9
:10142000BB69002B0AD17B691B7887F827307B6961
:1014300003F101037B614FF00803BB61BB6903F15A
:10144000FF33BB612F4B1B78002B1ED197F8273041
:101450005BB2002B0CDBFA683B6AD218B968FB69F7
:10146000CB18104619464FF0010201F00DF92AE0A1
:10147000FA683B6AD218B968FB69CB18104619465E
:101480004FF0000201F000F91DE097F827305BB241
:10149000002B0CDBFA683B6AD218B968FB69CB18E1
:1014A000104619464FF0000201F0EEF80BE0FA6822
:1014B0003B6AD218B968FB69CB18104619464FF041
:1014C000010201F0E1F897F827304FEA430387F86B
:1014D00027303B6A03F101033B627B689B881A4615
:1014E0003B6A9A429CDCFB6903F10103FB617B6868
:1014F000DB881A46FB699A428EDC07F12807BD4655
:1015000080BD00BF5E06002080B58AB000AFF860E5
:10151000B9607A604FF0000387F827304FF000037E
:10152000BB614FF00003FB754FF00003BB757B6898
:101530001B683B614FF00003FB61A2E04FF000032A
:101540003B6293E0BB69002B41D197F91730002B28
:1015500016D197F91630002B12D13B691B78FB7519
:101560003B6903F101033B6197F91730002B07DA60
:10157000FB7DC3F10003DBB2BB754FF00003FB75CD
:1015800097F91730002B0FDD3B691B7887F8273060
:10159000FB7D03F1FF33FB7597F91730002B03D167
:1015A0003B6903F101033B6197F91630002B0BDD1A
:1015B0003B691B7887F827303B6903F101033B61E6
:1015C000BB7D03F1FF33BB754FF00803BB61BB6903
:1015D00003F1FF33BB61334B1B78002B1ED097F810
:1015E00027305BB2002B0CDBFA683B6AD218B96873
:1015F000FB69CB18104619464FF0000201F044F881
:101600002AE0FA683B6AD218B968FB69CB18104621
:1016100019464FF0010201F037F81DE097F8273026
:101620005BB2002B0CDBFA683B6AD218B968FB6925
:10163000CB18104619464FF0010201F025F80BE0D7
:10164000FA683B6AD218B968FB69CB18104619468C
:101650004FF0000201F018F897F827304FEA4303E3
:1016600087F827303B6A03F101033B627B689B8864
:101670001A463B6A9A423FF765AFFB6903F10103E3
:10168000FB617B68DB881A46FB699A4205DDFA69D3
:10169000BB68D3183F2B7FF751AF07F12807BD4632
:1016A00080BD00BF5E06002080B487B000AF7860C8
:1016B00039603B681B68BB604FF000037B61BB680F
:1016C00003F1FF333B614FF00003FB60BB68002B6D
:1016D00051DD3B685B681A687B689A424BDC3B686B
:1016E0005A68BB6803F1FF334FEAC303D3181B6882
:1016F000002B40D028E03A697B69D31A4FEAD372B5
:10170000D3184FEA63031A467B69D318FB603B6822
:101710005A68FB684FEAC303D3181A687B689A4279
:1017200004DAFB6803F101037B610DE03B685A6852
:10173000FB684FEAC303D3181A687B689A4208DD36
:10174000FB6803F1FF333B613A697B699A42D2DA65
:1017500000E000BF3B685A68FB684FEAC303D31838
:101760001A687B689A4206D13B685A68FB684FEA60
:10177000C303D31801E04FF00003184607F11C071C
:10178000BD4680BC704700BF80B483B000AF034645
:10179000FB71044BFA791A7007F10C07BD4680BC47
:1017A000704700BF1D01002080B483B000AF034626
:1017B000FB71044BFA791A7007F10C07BD4680BC27
:1017C000704700BF5E06002080B483B000AF0346C0
:1017D000FB71044BFA791A7007F10C07BD4680BC07
:1017E000704700BF5F06002080B483B000AF03469F
:1017F000FB71044BFA791A7007F10C07BD4680BCE7
:10180000704700BF1C01002080B400AF0D4B4FF0AB
:1018100000021A800C4B1B78DBB2DBB203F10A0327
:10182000DBB2DAB2084B1A70074B1B78DBB25BB243
:101830003F2B03DD044B4FF000021A70BD4680BC05
:10184000704700BFC40A0020C106002080B586B0E2
:1018500002AF786039607B684FEAC3123B6892FB45
:10186000F3F3FB73FB7B802B02D94FF08003FB73F8
:101870004FF0010300934FF000004FF03B014FF099
:1018800080024FF0050300F031F8FB7B4FF00102BE
:1018900000924FF000004FF03B011A464FF0050355
:1018A00000F0FEF84FF000004FF03B014FF0000257
:1018B00000F0EAFE4FF07F004FF03B014FF00002D6
:1018C00000F0E2FE4FF000004FF03F014FF0000249
:1018D00000F0DAFE4FF07F004FF03F014FF00002C2
:1018E00000F0D2FE07F11007BD4680BD80B586B07E
:1018F00002AFF860B9607A603B60FA687B68D31821
:1019000003F1FF33BA690092F868B9681A46BB68F8
:1019100000F0EEF8BA683B68D31803F1FF33BA69F8
:101920000092F868B968FA6800F0E2F8FA687B6833
:10193000D31803F1FF31FA687B68D31803F1FF3243
:10194000B8683B68C31803F1FF33B86900900846D4
:10195000B96800F0CDF8BA683B68D31803F1FF31DD
:10196000FA687B68D31803F1FF32B8683B68C31884
:1019700003F1FF33B8690090F86800F0B9F807F197
:101980001007BD4680BD00BF90B587B002AFF860BC
:10199000B9607A603B603B6A012B0FD1FB6803F1B1
:1019A0000102BB6803F101034FF0010100911046F1
:1019B00019467A683B6800F073F86DE03B6A002BCB
:1019C0002BD14FF001030093F868B9687A683B683F
:1019D000FFF78CFFFB6803F10100BA683B68D11880
:1019E000FA687B68D218BC683B68E3184FF00104C2
:1019F000009400F07DF8FA687B68D018BB6803F1AA
:101A00000101FA687B68D218BC683B68E3184FF0A4
:101A10000104009400F06CF83EE03B6A022B3BD1DD
:101A20004FF001030093F868B9687A683B68FFF7E4
:101A30005DFFFB6803F10100BB6803F101017B68F6
:101A4000A3F102023B68A3F102034FF000040094EB
:101A500000F026F8FB6803F10100BA683B68D11872
:101A6000FA687B68D218BC683B68E3184FF0010441
:101A7000009400F03DF8FA687B68D018BB6803F169
:101A80000101FA687B68D218BC683B68E3184FF024
:101A90000104009400F02CF807F11407BD4690BD36
:101AA00080B588B002AFF860B9607A603B604FF0F3
:101AB00000037B6113E0BA687B69D118FA687B6820
:101AC000D31803F1FF32B8687B69C318386A0090F5
:101AD000F86800F00DF87B6903F101037B617A6916
:101AE0003B689A42E7DB07F11807BD4680BD00BF9F
:101AF00080B58AB000AFF860B9607A603B603A6840
:101B0000BB68D31A7B627A68FB68D31A3B627B6A34
:101B1000002B07DA7B6AC3F100037B624FF0FF33CF
:101B2000BB6102E04FF00103BB613B6A002B07DAA7
:101B30003B6AC3F100033B624FF0FF33FB6102E0FD
:101B40004FF00103FB617B6A4FEA43037B623B6A10
:101B50004FEA43033B62F868B9683A6B00F094FDC2
:101B60003A6A7B6A9A4223DD3B6A4FEA63037A6AE8
:101B7000D31A7B6117E07B69002B07DBBA68BB696E
:101B8000D318BB607A693B6AD31A7B61FA68FB6938
:101B9000D318FB607A697B6AD3187B61F868B968EF
:101BA0003A6B00F071FDFA687B689A42E3D122E05B
:101BB0007B6A4FEA63033A6AD31A3B6117E03B69D9
:101BC000002B07DBFA68FB69D318FB603A697B6A74
:101BD000D31A3B61BA68BB69D318BB603A693B6AE8
:101BE000D3183B61F868B9683A6B00F04DFDBA68EC
:101BF0003B689A42E3D107F12807BD4680BD00BF8C
:101C000080B584B000AF02460B46FA807B71FB883A
:101C10004FEA13339BB2FB73FB7B092B09D8FB7B89
:101C200003F13003DAB27B791046194600F04CFC20
:101C300008E0FB7B03F13703DAB27B7910461946E3
:101C400000F042FCFB8803F470634FEA2323FB732C
:101C5000FB7B092B09D8FB7B03F13003DAB27B79DC
:101C60001046194600F030FC08E0FB7B03F1370317
:101C7000DAB27B791046194600F026FCFB8803F0A7
:101C8000F0034FEA2313FB73FB7B092B09D8FB7B83
:101C900003F13003DAB27B791046194600F014FCE8
:101CA00008E0FB7B03F13703DAB27B791046194673
:101CB00000F00AFCFB88DBB203F00F03FB73FB7B35
:101CC000092B09D8FB7B03F13003DAB27B7910468C
:101CD000194600F0F9FB08E0FB7B03F13703DAB2A9
:101CE0007B791046194600F0EFFB07F11007BD465F
:101CF00080BD00BF80B584B000AF78600B46FB703C
:101D00007B684FEA1343FB81FA89FB78104619463A
:101D1000FFF776FF7B68FB81FA89FB78104619464E
:101D2000FFF76EFF07F11007BD4680BD80B584B098
:101D300000AF02460B46FA71BB71FB794FEA1313F1
:101D4000FB73FB7B092B09D8FB7B03F13003DAB271
:101D5000BB791046194600F0B7FB08E0FB7B03F1A6
:101D60003703DAB2BB791046194600F0ADFBFB79B8
:101D700003F00F03FB73FB7B092B09D8FB7B03F1FB
:101D80003003DAB2BB791046194600F09DFB08E03B
:101D9000FB7B03F13703DAB2BB791046194600F03A
:101DA00093FB07F11007BD4680BD00BF80B584B02E
:101DB00000AF78600B46FB707968274BA3FB0123CB
:101DC0004FEA531213464FEA03139B1A4FEA830359
:101DD000CA1A1346FB737A681F4BA3FB02134FEA20
:101DE00053137B6079681C4BA3FB01234FEA53120A
:101DF00013464FEA03139B1A4FEA8303CA1A13468A
:101E0000BB73BB7B092B05D8FB784FF0300019461C
:101E100000F05AFBBB7B9AB2FB781046194600F0E3
:101E2000B3F8FB784FF03A00194600F04DFBFB7B0E
:101E3000092B05D8FB784FF03000194600F044FB21
:101E4000FB7B9AB2FB781046194600F09DF807F12B
:101E50001007BD4680BD00BF8988888880B584B0E2
:101E600000AF78600B46FB707968364BA3FB01230B
:101E70004FEA531213464FEA03139B1A4FEA8303A8
:101E8000CA1A1346FB737A682E4BA3FB02134FEA60
:101E900053137B6079682B4BA3FB01234FEA53124A
:101EA00013464FEA03139B1A4FEA8303CA1A1346D9
:101EB000BB737A68234BA3FB02134FEA53137B6077
:101EC0007B687B737B7B092B05D8FB784FF0300058
:101ED000194600F0F9FA7B7B9AB2FB781046194656
:101EE00000F052F8FB784FF03A00194600F0ECFA97
:101EF000BB7B092B05D8FB784FF03000194600F06A
:101F0000E3FABB7B9AB2FB781046194600F03CF826
:101F1000FB784FF03A00194600F0D6FAFB7B092B0C
:101F200005D8FB784FF03000194600F0CDFAFB7B66
:101F30009AB2FB781046194600F026F807F1100710
:101F4000BD4680BD8988888880B582B000AF0246D2
:101F50000B46FA807B71B7F90630002B0ADAFB8852
:101F6000C3F100039BB2FB807B794FF02D00194633
:101F700000F0AAFAFA887B791046194600F004F8B6
:101F800007F10807BD4680BD80B584B000AF0246AA
:101F90000B46FA807B714FF00003BB734FF00003D8
:101FA000FB73FA88504BA3FB02134FEA53339BB2E7
:101FB000BB73BB7B002B0BD0BB7B03F13003DAB2CE
:101FC0007B791046194600F07FFA4FF00103FB734E
:101FD000FB88454AA2FB03124FEA523242F21071CB
:101FE00001FB02F29B1AFB80FA88404BA3FB021311
:101FF0004FEA93139BB2BB73BB7B002B02D1FB7BDD
:10200000002B0BD0BB7B03F13003DAB27B79104697
:10201000194600F059FA4FF00103FB73FB88334A6D
:10202000A2FB03124FEA92124FF47A7101FB02F203
:102030009B1AFB80FA882E4BA3FB02134FEA531323
:102040009BB2BB73BB7B002B02D1FB7B002B0BD065
:10205000BB7B03F13003DAB27B791046194600F0FE
:1020600033FA4FF00103FB73FB88214AA2FB0312F2
:102070004FEA52124FF0640101FB02F29B1AFB80FF
:10208000FA881C4BA3FB02134FEAD3039BB2BB732A
:10209000BB7B002B02D1FB7B002B08D0BB7B03F169
:1020A0003003DAB27B791046194600F00DFAFA884F
:1020B000104BA3FB02134FEAD3010B464FEA8303F5
:1020C0005B184FEA4303D31AFB80FB88DBB203F1B2
:1020D0003003DAB27B791046194600F0F5F907F1C2
:1020E0001007BD4680BD00BF5917B7D1D34D621050
:1020F0001F85EB51CDCCCCCC80B487B000AFF8605D
:10210000B9601346FB714FF000037B754FF000037D
:10211000FB754FF00003BB75FB79002B02D04FF02D
:102120000103FB75FB68002B0DDAFB68C3F10003AC
:10213000FB60BB7DBA68D3184FF02D021A70BB7DCF
:1021400003F10103BB75FB68684A82FB03124FEA87
:1021500022324FEAE373D31A7B757B7D002B02D1C9
:10216000FB7D002B0ED0BB7DBA68D3187A7D02F1BF
:102170003002D2B21A70BB7D03F10103BB754FF080
:102180000103FB75FB68594A82FB03124FEA2231B7
:102190004FEAE3728A1A42F2107101FB02F29B1AB3
:1021A000FB60FB68524A82FB03124FEAA2124FEA1D
:1021B000E373D31A7B757B7D002B02D1FB7D002B53
:1021C0000ED0BB7DBA68D3187A7D02F13002D2B24C
:1021D0001A70BB7D03F10103BB754FF00103FB7562
:1021E000FB68434A82FB03124FEAA2114FEAE372F3
:1021F0008A1A4FF47A7101FB02F29B1AFB60FB68AA
:102200003C4A82FB03124FEA62124FEAE373D31A8D
:102210007B757B7D002B02D1FB7D002B0ED0BB7D1F
:10222000BA68D3187A7D02F13002D2B21A70BB7D3F
:1022300003F10103BB754FF00103FB75FB682D4AE9
:1022400082FB03124FEA62114FEAE3728A1A4FF0DF
:10225000640101FB02F29B1AFB60FB68264A82FBC9
:1022600003124FEAA2024FEAE373D31A7B757B7D18
:10227000002B02D1FB7D002B0BD0BB7DBA68D3189D
:102280007A7D02F13002D2B21A70BB7D03F10103F4
:10229000BB75FA68184B83FB02134FEAA3014FEAA0
:1022A000E273C91A0B464FEA83035B184FEA4303F4
:1022B000D31AFB60BB7DBA68D318FA68D2B202F1B8
:1022C0003002D2B21A70BB7D03F10103BB75BB7D36
:1022D000BA68D3184FF000021A70BB7D03F10103F6
:1022E000BB7507F11C07BD4680BC7047AD8BDB6832
:1022F000D34D62101F85EB516766666680B485B06A
:1023000000AF78604FF00003FB8109E0FB8903F127
:102310000103FB81FB89002B02D14FF0000306E093
:10232000FB897A68D3181B78002BEFD1FB891846FC
:1023300007F11407BD4680BC704700BF80B483B06E
:1023400000AF78607B684FF000021A7007F10C074D
:10235000BD4680BC704700BF80B584B000AF7860D8
:1023600039604FF00003BB814FF000037B81786838
:10237000FFF7C4FF0346BB813868FFF7BFFF034682
:102380007B814FF00003FB810DE0BA89FB89D318F4
:102390007A68D318FA8939688A1812781A70FB8912
:1023A00003F10103FB81FA897B899A42EDD3BA8953
:1023B0007B89D3187A68D3184FF000021A7007F19E
:1023C0001007BD4680BD00BF80B586B000AF786005
:1023D0000B46FB704FF00003FB754FF00003BB8210
:1023E0004FF00003FB74FB781846FEF72BFEF860F5
:1023F000FB7D7A68D3181B78FB74FB7D03F1010326
:10240000FB75FB7C002B0FD0FB7C1846F968FFF7AF
:102410004BF9B860BB685B689A88BB8AD318BB82EB
:10242000FB7C002BE4D100E000BFBB8A184607F11B
:102430001807BD4680BD00BF80B584B000AF78608E
:1024400013460A46FA703B80FB7878681946FFF716
:10245000BBFF03464FEA53039BB2C3F14003FB812A
:10246000FA893B88DBB212B25BB21046194600F023
:10247000BBF8FB787868194600F004F807F11007FC
:10248000BD4680BD80B584B000AF78600B46FB7060
:102490004FF00003FB73FB7B7A68D3181B78BB7388
:1024A000BB7B002B0AD0BA7BFB781046194600F0A4
:1024B0000BF8FB7B03F10103FB73ECE700BF07F1B3
:1024C0001007BD4680BD00BF80B584B000AF024696
:1024D0000B46FA71BB71FB79002B78D0FB790A2B84
:1024E0000ED13D4B4FF000021A803C4B1B78DBB203
:1024F000DBB203F10A03DBB2DAB2384B1A7067E0E1
:10250000BB791846FEF79EFDF860FB791846F9681E
:10251000FFF7CAF8B860BB68002B59D02E4B1B8858
:102520009BB21AB2BB685B689B88D3187F2B1EDDF9
:102530002B4B1B78002B1AD0274B4FF000021A8030
:10254000BB685B68DB88DAB2244B1B78DBB2DBB29A
:10255000D318DBB2DAB2214B1A70204B1B78DBB2F6
:102560005BB23F2B03DD1D4B4FF000021A701D4B79
:102570001B78002B0FD0184B1B889BB219B2174B3E
:102580001B78DBB25AB2BB685B68084611461A4634
:10259000FEF7BAFF0EE0104B1B889BB219B20F4B2F
:1025A0001B78DBB25AB2BB685B68084611461A4614
:1025B000FEF71EFFBB685B689A88074B1B889BB2BF
:1025C0009BB2D3189BB29AB2034B1A8000E000BFB3
:1025D00007F11007BD4680BDC40A0020C1060020D7
:1025E0001C0100201D01002080B483B000AF024612
:1025F0000B46FA807B71054BFA881A80044B7A7976
:102600001A7007F10C07BD4680BC7047C40A002051
:10261000C106002080B582B000AFFEF74FFE4FF03C
:102620000003FB7124E0FB79184600F035F94FF008
:10263000000000F043F94FF07F03BB8010E0B7F9D2
:102640000410FB790F4A4FEAC101CB18D3181B784D
:10265000DBB21846FEF710FEBB8803F1FF33BB80E8
:10266000B7F90430002BEADAFB7903F10103FB71BF
:10267000FB79072BD7D9FEF72BFE07F10807BD46DC
:1026800080BD00BFC406002080B487B000AFF860F2
:10269000B9607A60BB68002B01DA03F107034FEAE7
:1026A000E303FB75BA68494B02EA0303002B05DA22
:1026B00003F1FF3363F0070303F10103BB75FB680C
:1026C000002B7DDBFB687F2B7ADCBB68002B77DB84
:1026D000BB68402B74DC3E4B1B78002B31D07B68F1
:1026E000002B1CD0FB7DFA7D3A49F8684FEAC00008
:1026F00082188A181278D2B2D1B2BA7D4FF0010096
:1027000000FA02F2D2B281EA0202D2B2D2B2314966
:10271000F8684FEAC000C318CB181A7050E0FB7D70
:10272000FA7D2C49F8684FEAC00082188A1812789E
:10273000D2B22849F8684FEAC000C318CB181A7003
:102740003EE07B68002B1CD0FB7DFA7D2149F868B8
:102750004FEAC00082188A181278D2B2D1B2BA7D7C
:102760004FF0010000FA02F2D2B241EA0202D2B204
:10277000D2B21849F8684FEAC000C318CB181A70D3
:102780001EE0FB7DFA7D1349F8684FEAC00082180D
:102790008A181278D2B2D1B2BA7D4FF0010000FA95
:1027A00002F2D2B26FEA0202D2B201EA0202D2B25D
:1027B000D2B20849F8684FEAC000C318CB181A70A3
:1027C00007F11C07BD4680BC704700BF07000080B2
:1027D0005F060020C406002080B483B000AF4FF035
:1027E0000003FB7118E04FF00003BB800DE0B988D7
:1027F000FB79114A4FEAC101CB18D3184FF0000200
:102800001A70BB8803F10103BB80BB887F2BEED914
:10281000FB7903F10103FB71FB79072BE3D9074B2C
:102820004FF000021A80064B4FF000021A7007F1B9
:102830000C07BD4680BC7047C4060020C40A0020B7
:10284000C106002080B582B000AF4FF000037B606E
:102850001BE07B68DBB2184600F01EF84FF000006A
:1028600000F02CF84FF000033B6007E04FF0000051
:10287000FEF702FD3B6803F101033B603B687F2BE1
:10288000F4DD7B6803F101037B607B68072BE0DDEF
:1028900007F10807BD4680BD80B582B000AF034692
:1028A000FB71FB7963F04F03FB71FB791846FEF770
:1028B000C1FC07F10807BD4680BD00BF80B582B0EE
:1028C00000AF0346FB71FB794FEA1313DBB243F011
:1028D0001003DBB21846FEF7ADFCFB7903F00F03E3
:1028E000DBB21846FEF7A6FC07F10807BD4680BD1F
:1028F00080B500AF00F02CF8FEF7E0FC4FF0A00030
:10290000FEF798FC4FF0C000FEF794FC4FF0A200D9
:10291000FEF790FC4FF02F00FEF78CFC4FF02600E6
:10292000FEF788FC4FF08100FEF784FC4FF01300A7
:10293000FEF780FC4FF04000FEF77CFCFFF782FFC3
:102940004FF0AF00FEF776FCFEF7C2FC80BD00BF83
:1029500080B500AF09484FF4004103F0BFFB4FF0D2
:102960000500FEF741FB05484FF4004103F0A8FBCA
:102970004FF00A00FEF738FB80BD00BF00080140A1
:102980002DE9F04387B000AFC7E902017A60FB7020
:102990006B461E467B6803F1040101F1FF337B6146
:1029A0000B461A464FF000034FEA52704FEAC30934
:1029B00040EA09094FEAC2080B461A464FF00003E5
:1029C0004FEA52704FEAC30540EA05054FEAC204D8
:1029D0000B4603F1070303F107034FEAD3034FEA62
:1029E000C303ADEB030D6B4603F107034FEAD303BB
:1029F0004FEAC3033B613B69D7E902017A6808F0FB
:102A00006BFB3A69FB7810461946FFF73BFDB5466C
:102A100007F11C07BD46BDE8F08300BF80B483B05A
:102A200000AF03463960FB7197F90730002B0DDAD0
:102A30000E49FB7903F00F03A3F104033A68D2B205
:102A40004FEA0212D2B2CB181A760AE0084997F977
:102A500007303A68D2B24FEA0212D2B2CB1883F8EA
:102A6000002307F10C07BD4680BC704700ED00E075
:102A700000E100E080B582B000AF78607A686FF066
:102A80007F439A4202D94FF0010316E00D4B7A685A
:102A900022F07F4202F1FF325A604FF0FF304FF0D8
:102AA0000F01FFF7BBFF074B4FF000029A60054B89
:102AB0004FF007021A604FF00003184607F10807AD
:102AC000BD4680BD10E000E080B500AF1048FFF7C4
:102AD000D1FF0346002B00D0FEE7FDF717FBFFF701
:102AE00007FFFFF797FD4FF00700FDF7E7FC4FF0FA
:102AF0000100FDF721FE4FF09600FEF775FA4FF04A
:102B00000600FDF703FD00F0AFFB00F0B3FCFEE7AD
:102B10004019010080B586B000AF78604FF0000327
:102B2000FB824FF000037B7544E04FF000033B75E0
:102B300031E07B7D4FEA83037A68D3181A683B7DC6
:102B40004FEAC303D3185B683B613B694FEA1363E9
:102B5000DBB23B733B694FEA1343DBB27B733B69E8
:102B60004FEA1323DBB2BB733B69DBB2FB73FB8A17
:102B700003F580739BB207F10C02104619464FF023
:102B8000040200F0DBF8FB8A03F10403FB823B7DC7
:102B900003F101033B757B7D4FEA83037A68D31809
:102BA0001B6893F820303A7D9A42C2D37B7D03F1B3
:102BB00001037B757B7D022BB7D907F11807BD4652
:102BC00080BD00BF80B586B000AF78604FF00003D5
:102BD000FB824FF000037B7547E04FF000033B752D
:102BE00034E0FB8A03F580739BB207F10C021046B8
:102BF00019464FF0040200F08FF93B7B4FEA036265
:102C00007B7B4FEA0343D218BB7B4FEA0323D218E6
:102C1000FB7BD3183B613B69B3F1FF3F02D14FF01F
:102C200000033B617B7D4FEA83037A68D318196800
:102C30003B7D3A694FEAC303CB185A60FB8A03F124
:102C40000403FB823B7D03F101033B757B7D4FEA6F
:102C500083037A68D3181B6893F820303A7D9A4230
:102C6000BFD37B7D03F101037B757B7D022BB4D940
:102C700007F11807BD4680BD80B584B000AF78600D
:102C800007F1080318464FF080014FF0040200F0EE
:102C900043F94FF00003FB7326E0FB7B07F11001C3
:102CA000CB1813F8083CFF2B07D1FB7B07F1100270
:102CB000D3184FF0000203F8082CFA7BFB7B07F1D6
:102CC0001001CB1813F8081C786813464FEAC303A9
:102CD0009B184FEAC303C31803F138030A461A715D
:102CE000FB7B03F10103FB73FB7B032BD5D907F1BE
:102CF0001007BD4680BD00BF80B584B000AF7860CE
:102D00007B6893F83C303B737B6893F884307B732B
:102D10007B6893F8CC30BB737B6893F81431FB73FA
:102D200007F10C0318464FF080014FF0040200F049
:102D300005F807F11007BD4680BD00BF80B584B01F
:102D400000AF786013460A467A803B804FF000035C
:102D5000FB734FF00003BB734FF000037B734FF026
:102D600000037B817B884FEA43534FEA53537B80B8
:102D70007B8803F00F037B817B89DBB2C3F11003F7
:102D80007B733B884FEA13139BB2FB733B88DBB228
:102D900003F00F03BB737B89002B39D1FB7B002B26
:102DA0001BD17A88BB7B786811461A4600F0B2F9CD
:102DB00000F026FAACE07B88786819464FF01002E4
:102DC00000F0A8F900F01CFA7B8803F110037B8067
:102DD0007B6803F110037B6000E000BFFB7B002BEE
:102DE0000CBF00230123DBB2FA7B02F1FF32FA733E
:102DF000002BE0D1BB7B002B00F08A807A88BB7B64
:102E0000786811461A4600F085F900F0F9F97FE07C
:102E1000FB7B002B2CD17B7B9BB23A889A421DD93D
:102E20007A887B7B786811461A4600F073F900F0C7
:102E3000E7F97B7B7A68D1187B7B9AB27B88D318C1
:102E40009AB23B88D8B27B7BC31ADBB208461146E4
:102E50001A4600F05FF900F0D3F959E07A88BB7B9D
:102E6000786811461A4600F055F900F0C9F94FE0AC
:102E70007B7B9BB23A88D31A3B803B884FEA131383
:102E80009BB2FB733B88DBB203F00F03BB737B7B0E
:102E9000002B24D07A887B7B786811461A4600F094
:102EA00039F900F0ADF97B7B9AB27B88D3187B802F
:102EB0007B7B7A68D3187B6012E07B887868194640
:102EC0004FF0100200F026F900F09AF97B8803F128
:102ED00010037B807B6803F110037B6000E000BF80
:102EE000FB7B002B0CBF00230123DBB2FA7B02F13A
:102EF000FF32FA73002BE0D1BB7B002B08D07A881D
:102F0000BB7B786811461A4600F004F900F078F9A6
:102F100007F11007BD4680BD80B584B000AF786072
:102F200013460A467A803B807B884FEA43534FEA38
:102F300053537B8000BF44484FF4003103F090FEB0
:102F40000346002BF7D140484FF0010103F0B6FBD8
:102F500000BF3D483D4903F023FE0346002BF8D057
:102F60007B884FEA13239BB24FEA4303DBB263F043
:102F70005F03DBB2FB73FB7B334819464FF0000263
:102F800003F0A2FC00BF3048314903F009FE0346BC
:102F9000002BF8D07B88DBB22B48194603F076FC77
:102FA00000BF29482B4903F0FBFD0346002BF8D056
:102FB00025484FF0010103F081FB00BF224823495F
:102FC00003F0EEFD0346002BF8D01F484FF0A001A0
:102FD0004FF0010203F078FC00BF1B481E4903F0CC
:102FE000DFFD0346002BF8D022E03B88012B09D1FE
:102FF00015484FF0000103F0A1FB13484FF0010109
:1030000003F07CFB1048154903F0CAFD0346002B72
:103010000ED00D4803F04AFC03461A467B681A702E
:103020007B6803F101037B603B8803F1FF333B8046
:103030003B88002BD9D104484FF0010103F07EFBFF
:1030400007F11007BD4680BD005400400100030099
:103050008200070084000700020003004000030014
:1030600080B584B000AF78600B467B8025484FF078
:10307000010103F023FB00BF2248234903F090FD28
:103080000346002BF8D07B884FEA13239BB24FEA0C
:103090004303DBB263F05F03DBB2FB73FB7B1948D6
:1030A00019464FF0000203F00FFC00BF1548174906
:1030B00003F076FD0346002BF8D07B88DBB2114885
:1030C000194603F0E3FB00BF0E48114903F068FD09
:1030D0000346002BF8D07B681B780A48194603F09A
:1030E000D5FB00BF07480A4903F05AFD0346002BF1
:1030F000F8D004484FF0010103F000FB07F110077E
:10310000BD4680BD0054004001000300820007005E
:103110008400070080B584B000AF786013460A468B
:103120007A807B7000BF32484FF4003103F098FD85
:103130000346002BF7D12E484FF0010103F0BEFAF1
:1031400000BF2B482B4903F02BFD0346002BF8D082
:103150007B884FEA13239BB24FEA4303DBB263F051
:103160005F03DBB2FB73FB7B214819464FF0000283
:1031700003F0AAFB00BF1E481F4903F011FD0346E0
:10318000002BF8D07B88DBB21948194603F07EFB90
:1031900000BF1748194903F003FD0346002BF8D080
:1031A00011E07B681B781248194603F06FFB7B68BF
:1031B00003F101037B6000BF0D48104903F0F0FCF0
:1031C0000346002BF8D07B78002B0CBF0023012393
:1031D000DBB27A7802F1FF327A70002BE1D1044839
:1031E0004FF0010103F08AFA07F11007BD4680BDD8
:1031F0000054004001000300820007008400070023
:1032000080B582B000AF4FF00003FB8014484FF050
:10321000010103F053FA12484FF0140103F072FB5E
:103220000346FB800E484FF0A0014FF0000203F070
:103230004BFB0B484FF0140103F064FB034603F013
:103240000203002BE2D00648064903F047FD04487C
:103250004FF0010103F052FA07F10807BD4680BDA7
:10326000005400400004001080B582B000AF634BF2
:103270004FF0030283F82020604B614A1A605F4BD5
:103280004FF00A025A605D4B5E4A9A605B4B4FF00A
:103290000502DA60594B5C4A1A61584B4FF0030241
:1032A0005A615A4B4FF0010283F82020574B544A81
:1032B0001A60564B4FF4FA725A60554B4FF00202A7
:1032C00083F82020524B534A1A60514B42F6F822A1
:1032D0005A604F4B504A9A604D4B4FF01E02DA60D5
:1032E0004E48FFF76FFC4E4B4FF0040283F8D0229C
:1032F0004B4B4C4A1A644A4B4FF00A0283F8442065
:10330000474B4FF0020283F83C20454B464A1A6077
:10331000434B464A5A60424B454A9A60404B454AA5
:10332000DA603F4B444A1A613D4B444A5A613C4B78
:10333000434A9A613A4B434ADA61394B424A1A622C
:10334000374B424A5A62364B414AC3F88820344BC5
:103350004FF0050283F88C20314B4FF0010283F8C7
:1033600084202F4B3B4A9A642D4B3B4ADA642C4B0A
:103370002D4A1A652A4B2D4A5A65294B2C4A9A65C3
:10338000274B364AC3F8D020254B4FF0020283F872
:10339000D420234B4FF0010283F8CC20204B304A3D
:1033A000C3F890201E4B2F4AC3F894201C4B2E4A82
:1033B000C3F818211A4B4FF0020283F81C21184B56
:1033C0004FF0000283F81421154B284AC3F8D82087
:1033D000134B274AC3F8DC201148FFF74DFCFDF7DB
:1033E00067FD78607B684FF064021A700C48FDF747
:1033F0005BFC07F10807BD4680BD00BF9C0D0020A7
:10340000C4FA0008D0FA0008D8FA0008C00D00205D
:10341000E40D0020E8FA0008F8FA00083001002066
:10342000C80A002000FB00080CFB000814FB000881
:103430001CFB000824FB00082CFB000834FB0008E0
:103440003CFB000844FB00084CFB000854FB000850
:103450005CFB000868FB000870FB000878FB0008B4
:1034600080FB000888FB000890FB0008A0FB000818
:10347000A4FB000880B582B000AF4FF00003FB71E1
:10348000FB79184600F06EF8FDF7AAFE0346BB7103
:10349000BB79022B0AD1FB7903F10103FB71FB79A4
:1034A000032B55D94FF00003FB7151E0BB79012B81
:1034B0000BD1FB79002B04D0FB7903F1FF33FB71B7
:1034C00046E04FF00303FB7142E0BB79102B28D19B
:1034D000FB7903F10202224B02EA0303002B05DA17
:1034E00003F1FF3363F0030303F101037B717B7985
:1034F000012B02D100F0ACF92AE07B79032B04D137
:1035000000F00AFAFDF786FE22E07B79022B02D159
:1035100000F0E8F81CE07B79002B19D100F0C4F929
:1035200016E0BB79402B04D14FF00300FDF704F9FE
:103530000EE0BB79802B04D14FF00300FDF7FCF8BF
:1035400006E0BB79202B03D14FF00300FDF7F4F820
:10355000FB79184600F006F8FDF75CFE94E700BF23
:103560000300008080B584B000AF0346FB71FFF715
:1035700033F94FF00000FEF737F96FF017004FF006
:103580000301FFF731F8FB7903F00303DBB203F12A
:103590003003DBB218464FF00201FEF795FF4FF003
:1035A0000C004FF00301FFF71FF8FB7903F1010254
:1035B0004A4B02EA0303002B05DA03F1FF3363F001
:1035C000030303F10103DBB203F13003DBB218465E
:1035D0004FF00201FEF778FF4FF030004FF00C0182
:1035E000FFF702F8FB7903F102023C4B02EA030306
:1035F000002B05DA03F1FF3363F0030303F101034A
:10360000DBB203F13003DBB218464FF00201FEF7E4
:103610005BFF4FF054004FF00301FEF7E5FFFB792D
:1036200003F103022D4B02EA0303002B05DA03F139
:10363000FF3363F0030303F10103DBB203F1300353
:10364000DBB218464FF00201FEF73EFF4FF0780064
:103650004FF00301FEF7C8FFFB7903F104021F4B93
:1036600002EA0303002B05DA03F1FF3363F00303DF
:1036700003F10103DBB203F13003DBB218464FF074
:103680000201FEF721FF4FF006004FF03201FEF776
:10369000ABFFFB7903F10202104B02EA0303002B9C
:1036A00005DA03F1FF3363F0030303F10103FB7356
:1036B000FA7B0B4B53F8223018464FF000014FF0C5
:1036C0003202FEF7B9FEFEF7A5FF4FF00100FEF74C
:1036D0008BF807F11007BD4680BD00BF03000080D6
:1036E0002001002080B582B000AF4FF00003FB71D5
:1036F00000E000BF134B9B681846134900F0F0FA36
:103700000346FB71FB79202B02D0FB79802B06D17D
:103710004FF00003184607F10807BD4680BDFB794E
:10372000402B07D1084B5B68184600F00FF8FDF7F7
:1037300071FDDFE7FB79402BDBD14FF00300FCF795
:10374000FBFFD7E720010020C00D002080B592B01C
:1037500002AF78604FF00A03FB874FF0000387F851
:103760003D304FF0020300934FF007004FF0060189
:103770004FF072024FF02F03FEF706F932484FF078
:1037800000014FF00D02FEF757FE30484FF00001E8
:103790004FF01902FEF750FE4FF00000FCF7CCFF8F
:1037A0007868FDF759FBB863BB6B7B63B86BFDF7BB
:1037B00089FB4FF0000300934FF01E004FF02401EF
:1037C0004FF043024FF00A03FEF76AF9FDF79CFB46
:1037D000B8637A6BBB6BD31A1846FDF7AFFB38633F
:1037E0003A6B07F10803104619464FF00002FEF746
:1037F00083FC07F1080318464FF000014FF0250243
:10380000FEF71AFE4FF032004FF03101FEF7ECFEEA
:10381000B86B4FF00001FEF76DFAFEF7FBFEFDF707
:103820007DFC0346802B04D14FF00300FCF784FF9E
:1038300006E0BB6B002BBCD14FF00100FCF77CFF16
:1038400007F14007BD4680BDA8FB0008B4FB000897
:1038500080B582B000AF4FF00003FB7100E000BF05
:103860000F4B5B6818460F4900F044FB0346FB71A1
:103870000C48FDF719FAFB79202B02D0FB79802B3D
:1038800006D14FF00003184607F10807BD4680BD7A
:10389000FB79402BE3D14FF00300FCF74DFFDFE74E
:1038A00020010020C80A002080B582B000AF4FF090
:1038B0000003FB71164B1B681846164900F010FAFE
:1038C0000346FB71FB79202B02D0FB79802B06D1BC
:1038D0004FF00003184607F10807BD4680BDFB798D
:1038E000402B10D10B4B5B6819460A4BDB681A461C
:1038F000084B5B69DBB2084611461A4600F0B4F883
:10390000FDF788FCD6E74FF00300FCF715FFD1E781
:10391000200100209C0D002080B582B000AF4FF048
:103920000003FB71124BDB681846124900F0D8F90E
:103930000346FB71FB79202B02D0FB79802B06D14B
:103940004FF00003184607F10807BD4680BDFB791C
:10395000402B07D1074BDB68184600F00DF8FDF748
:1039600059FCDFE74FF00300FCF7E6FEDAE700BFA3
:1039700020010020E40D002080B588B002AF7860FF
:103980004FF00A03BB824FF00003FB744FF00203B9
:1039900000934FF007004FF006014FF072024FF016
:1039A0002F03FDF7F1FF2E484FF000014FF00D02FD
:1039B000FEF742FD2B484FF000014FF01902FEF7D1
:1039C0003BFD4FF00000FCF7B7FE3DE04FF0000379
:1039D00000934FF01E004FF024014FF043024FF0D0
:1039E0000A03FEF75DF87A6807F1080310461946E6
:1039F0004FF00002FEF780FB07F1080318464FF076
:103A000000014FF02502FEF717FDFEF703FE4FF011
:103A10000003FB7511E04FF01900FDF7E5FAFDF723
:103A20007DFB0346802B04D14FF00300FCF784FE9E
:103A300011E0FB7D03F10103FB75FB7D272BEAD928
:103A40007B6803F1FF337B607B68002BBED14FF0B6
:103A50000100FCF771FE07F11807BD4680BD00BFED
:103A6000C0FB0008D0FB000880B598B002AFF8603A
:103A7000B9601346FB714FF00A03A7F850304FF0BE
:103A8000000387F84F30FB7987F853304FF0000080
:103A9000FCF752FE0EE1F868FDF7DEF9B864BB6C86
:103AA0007B64B86CFDF70EFA4FF0020300934FF001
:103AB00007004FF006014FF072024FF02F03FDF7A1
:103AC00063FF83484FF000014FF00D02FEF7B4FC96
:103AD00007F120031846FEF731FC07F120031846D2
:103AE0007C49FEF739FCFDF70FFAB8647A6CBB6CC1
:103AF000D31A1846FDF722FA38643A6C07F114031A
:103B0000104619464FF00002FEF7F6FA07F12002C0
:103B100007F1140310461946FEF71EFC07F12003B7
:103B200018464FF000014FF01902FEF785FC07F12F
:103B300020031846FEF702FC07F1200318466649E9
:103B4000FEF70AFC97F8532007F1140310461946B4
:103B50004FF00002FEF7D0FA07F1200207F114033C
:103B600010461946FEF7F8FB07F1200318464FF000
:103B700000014FF02502FEF75FFCFEF74BFDFDF75D
:103B8000CDFA0346802B04D14FF00300FCF7D4FD9F
:103B900099E0BB6C002B87D1BB687B654FF00203BB
:103BA00000934FF007004FF006014FF072024FF004
:103BB0002F03FDF7E9FE46484FF000014FF00D02DC
:103BC000FEF73AFC07F120031846FEF7B7FB07F1B2
:103BD000200318464149FEF7BFFB7A6D07F1140335
:103BE000104619464FF00002FEF786FA07F1200250
:103BF00007F1140310461946FEF7AEFB07F1200348
:103C000018464FF000014FF01902FEF715FC07F1BE
:103C100020031846FEF792FB07F1200318462E49B1
:103C2000FEF79AFB97F8532007F114031046194644
:103C30004FF00002FEF760FA07F1200207F11403CB
:103C400010461946FEF788FB07F1200318464FF08F
:103C500000014FF02502FEF7EFFBFEF7DBFC4FF013
:103C6000000387F8523013E04FF01900FDF7BCF95C
:103C7000FDF754FA0346802B04D14FF00300FCF704
:103C80005BFD20E097F8523003F1010387F85230D2
:103C900097F85230272BE7D97B6D03F1FF337B6513
:103CA0007B6D002B7FF47AAF97F8533003F1FF332D
:103CB00087F8533097F85330002B7FF4ECAE4FF079
:103CC0000100FCF739FD07F15807BD4680BD00BF74
:103CD000A8FB0008DCFB0008E8FB0008F0FB00087C
:103CE00090B585B000AF786039604FF00003FB738A
:103CF000FB7B786839681A4600F064F8FDF78AFAA9
:103D0000FDF76EFA0346BB73BB7B082B0AD1FB7B26
:103D100003F10103FB73FB7B022B42D94FF000033D
:103D2000FB733EE0BB7B042B0BD1FB7B002B04D051
:103D3000FB7B03F1FF33FB7333E04FF00203FB73B4
:103D40002FE0BB7B102B18D1FC7BFA7B3B6853F830
:103D50003220FB7B39684FEAC303CB185B681046FF
:103D6000194600F015FB024639684FEAC403CB1828
:103D70005A601348FEF7CEFE13E0BB7B202B04D124
:103D8000FDF748FA4FF0200314E0BB7B402B02D133
:103D90004FF040030EE0BB7B802B02D14FF080033D
:103DA00008E0FB7B786839681A4600F00BF8FDF7ED
:103DB00031FAA5E7184607F11407BD4690BD00BFCC
:103DC0003001002080B58AB002AFF860B9601346B8
:103DD000FB71FEF701FDF86800F0EEFC4FF0000308
:103DE000FB7776E0FA79FB7F9A4219D14FF0010018
:103DF000FDF7DAFCFA7F13464FEA43039B184FEABC
:103E0000830303F110034FF0010200924FF0000012
:103E100019464FF07F024FF00C03FDF741FE03E01F
:103E20004FF00000FDF7C0FCFB7F1A464FEA42024C
:103E3000D3184FEA8303DBB203F11203DBB2DBB228
:103E40005BB24FF001001946FEF7CEFBFA7FBB686C
:103E500053F8323018464FF00001FEF713FBFB7F9A
:103E6000BA684FEAC303D3185A6807F1140310461F
:103E700019464FF00002FEF73FF907F11403184608
:103E80004FF00001FEF7A0FA0346BB77BB7F9BB261
:103E9000C3F17F039BB29AB2FB7F19464FEA4101FF
:103EA000CB184FEA8303DBB203F11203DBB2DBB2C0
:103EB00012B25BB210461946FEF796FB07F11403E7
:103EC00018464FF00001FEF7DDFAFB7F03F1010316
:103ED000FB77BB6893F82030FA7F9A4282D34FF089
:103EE0000000FDF761FCFEF795FB184607F120077F
:103EF000BD4680BD80B584B000AF786039604FF0BA
:103F00000003FB734FF00003BB73FA7BBB7B786845
:103F1000396800F073F8FDF77DF9FDF761F90346A4
:103F20007B737B7B082B0DD1FB7B03F10103FB73C0
:103F30003B6893F8D032FA7B9A424ED34FF000039D
:103F4000FB734AE07B7B042B0ED1FB7B002B04D060
:103F5000FB7B03F1FF33FB733FE03B6893F8D03208
:103F600003F1FF33FB7338E07B7B102B21D1FA7B0D
:103F7000BB7BD218396813464FEAC3039B184FEA3C
:103F8000C303CB1803F1400319683868FA7BBB7B85
:103F9000D3181A4613464FEAC3039B184FEAC303CC
:103FA000C3180846194600F0E1F81348FEF7A4FECE
:103FB00013E07B7B202B04D1FDF72CF94FF020037D
:103FC00014E07B7B402B02D14FF040030EE07B7B63
:103FD000802B02D14FF0800308E0FA7BBB7B78682E
:103FE000396800F00BF8FDF715F996E7184607F168
:103FF0001007BD4680BD00BFC80A002080B58AB04A
:1040000002AFF860B960FA71BB71FEF7E5FBF868C2
:1040100000F0D2FB4FF00003FB7796E0FA7FBB790C
:10402000D218BB6893F8D0329A4280F29380FA7922
:10403000F97FBB79CB189A4219D14FF00100FDF7F7
:10404000B3FBFA7F13464FEA43039B184FEA8303FF
:1040500003F110034FF0010200924FF000001946E7
:104060004FF07F024FF00C03FDF71AFD03E04FF015
:104070000000FDF799FBFB7F1A464FEA4202D31876
:104080004FEA8303DBB203F11203DBB2DBB25BB2B4
:104090004FF001001946FEF7A7FAFA7FBB79D21854
:1040A000B96813464FEAC3039B184FEAC303CB1802
:1040B00003F140031B6818464FF00001FEF7E2F9D8
:1040C000FA7FBB79D218F97FBB79C918B8680B465B
:1040D0004FEAC3035B184FEAC303C31803F1380365
:1040E0001B791846B96813464FEAC3039B184FEA79
:1040F00043031B1851F82330BB61B8694FF000012E
:10410000FEF762F90346FB75FB7D9BB2C3F17F03AB
:104110009BB29AB2FB7F19464FEA4101CB184FEA96
:104120008303DBB203F11203DBB2DBB212B25BB288
:1041300010461946FEF758FAB8694FF00001FEF72D
:10414000A1F9FB7F03F10103FB77FB7F032B7FF6D4
:1041500065AF00E000BF4FF00000FDF725FBFEF764
:1041600059FA184607F12007BD4680BD80B584B0D6
:1041700000AF786039604FF00003FB734FF000032D
:10418000BB73FA7BBB7B7868396800F075F8FDF784
:1041900041F8FDF725F803467B737B7B082B1DD187
:1041A000FA7BBB7BD31803F101023B6893F84430E0
:1041B0009A4206DB4FF00003FB734FF00003BB7322
:1041C0004CE0FB7B022B04D8FB7B03F10103FB7368
:1041D00044E0BB7B03F10103BB733FE07B7B042B1B
:1041E00025D1FB7B002B04D0FB7B03F1FF33FB735A
:1041F00034E0BB7B002B04D0BB7B03F1FF33BB73EC
:104200002CE03B6893F84430042B09D94FF00303AA
:10421000FB733B6893F84430A3F10403BB731DE0C8
:104220003B6893F8443003F1FF33FB7316E07B7B6C
:10423000102B0BD1FA7BBB7BD318DAB23B6883F827
:104240003C20FCF7E7FF4FF0100310E07B7B202BB6
:1042500004D1FCF7DFFF4FF0200308E0FA7BBB7BC3
:104260007868396800F008F8FCF7D4FF91E7184641
:1042700007F11007BD4680BD80B588B002AFF86079
:10428000B960FA71BB71FEF7A7FAF86800F094FA0A
:104290004FF00003FB756BE0FA7DBB79D218BB6869
:1042A00093F844309A4267DAFA79FB7D9A4219D141
:1042B0004FF00100FDF778FAFA7D13464FEA430309
:1042C0009B184FEA830303F110034FF001020092A1
:1042D0004FF0000019464FF07F024FF00C03FDF73E
:1042E000DFFB03E04FF00000FDF75EFAFB7D1A46AE
:1042F0004FEA4202D3184FEA8303DBB203F1120301
:10430000DBB2DBB25BB24FF001001946FEF76CF98D
:10431000FA7DBB79D218BB6853F8223018464FF0AB
:104320000001FEF7AFF8BB6893F83C301A46F97D00
:10433000BB79CB189A4217D1FB7D1A464FEA42024D
:10434000D3184FEA8303DBB203F11203DBB2DBB213
:104350005BB24FF076001946FEF746F94FF0560073
:104360004FF00001FEF7B0F8FB7D03F10103FB7590
:10437000FB7D032B90D900E000BF4FF00000FDF75C
:1043800013FAFEF747F9184607F11807BD4680BD36
:1043900080B588B002AF786039604FF00003FB75DC
:1043A0003B683B613B68AA4A82FB03124FEA223218
:1043B0004FEAE373D31ADBB23B733B68A44A82FB38
:1043C00003124FEA22314FEAE3728A1A42F2107165
:1043D00001FB02F29B1A3B603B689E4A82FB031280
:1043E0004FEAA2124FEAE373D31ADBB2FB723B68C7
:1043F000984A82FB03124FEAA2114FEAE3728A1A2B
:104400004FF47A7101FB02F29B1A3B603B68924ABF
:1044100082FB03124FEA62124FEAE373D31ADBB254
:10442000BB723B688C4A82FB03124FEA62114FEA6F
:10443000E3728A1A4FF0640101FB02F29B1A3B609F
:104440003B68864A82FB03124FEAA2024FEAE373FB
:10445000D31ADBB27B723968804B83FB01234FEAAE
:10446000A3024FEAE173D21A13464FEA83039B1863
:104470004FEA4303CA1AD3B23B724FF002030093D0
:104480004FF00F004FF009014FF062024FF0290387
:10449000FDF77AFA78684FF000014FF01002FDF74F
:1044A000CBFF4FF0000300934FF019004FF01C01B9
:1044B0004FF04D024FF01103FDF7F2FA4FF00003F9
:1044C000FB7337E0FA7B13464FEA03139B1A03F1A1
:1044D0001B034FF00102009218464FF01E014FF0EF
:1044E0000D024FF00D03FDF701FAFB7B9BB21A465C
:1044F0004FEA0212D31A9BB203F11F039BB29BB285
:104500001BB218464FF02101FEF76EF8FB7BC3F19A
:10451000040307F11801CB1813F8103C03F1300322
:10452000DBB218464FF00001FDF7CEFFFB7B03F135
:104530000103FB73FB7B042BC4D9FB7D1A464FEAB6
:104540000313D31A03F156034FF0010200921846E9
:104550004FF01D014FF00F024FF00F03FDF7C6F9AA
:10456000FB7D1A464FEA0313D31A03F155034FF0AC
:104570000102009218464FF01C014FF011024FF05B
:104580001103FDF7B3F9FEF745F8FCF743FEFCF71E
:1045900027FE03467B737B7B012B08D1FB7D032B1E
:1045A00000F28A80FB7D03F10103FB7584E07B7BD5
:1045B000022B07D1FB7D002B7ED0FB7D03F1FF3367
:1045C000FB7579E07B7B042B1FD1FB7D07F1180283
:1045D000D31813F8103C092B08D1FB7D07F1180103
:1045E000CB184FF0000203F8102C65E0FB7D07F1BB
:1045F0001801CA1812F8102C02F10102D2B207F108
:104600001801CB1803F8102C56E07B7B082B27D120
:10461000FB7D07F11802D31813F8103C002B08D1CA
:10462000FB7D07F11801CB184FF0090203F8102C9D
:1046300042E0FB7D07F11801CA1812F8102C02F1B4
:10464000FF32D2B207F11801CB1803F8102C33E077
:10465000AD8BDB68D34D62101F85EB5167666666D4
:104660007B7B102B25D13B7B42F2107202FB03F3C4
:104670003B61FB7A4FF47A7202FB03F33A69D31879
:104680003B61BB7A4FF0640202FB03F33A69D31833
:104690003B617B7A1A4613464FEA83039B184FEA25
:1046A00043033A69D3183B613B7A3A69D3183B61BB
:1046B0007AE07B7B202B76D04FF0000300934FF005
:1046C00019004FF01C014FF04D024FF01103FDF7A0
:1046D000E7F94FF00003BB7337E0BA7B13464FEAAC
:1046E00003139B1A03F11B034FF0010200921846BB
:1046F0004FF01E014FF00D024FF00D03FDF7F6F8DD
:10470000BB7B9BB21A464FEA0212D31A9BB203F14B
:104710001F039BB29BB21BB218464FF02101FDF75D
:1047200063FFBB7BC3F1040307F11802D31813F82E
:10473000103C03F13003DBB218464FF00001FDF7E7
:10474000C3FEBB7B03F10103BB73BB7B042BC4D94A
:10475000FB7D1A464FEA0313D31A03F156034FF0B9
:104760000102009218464FF01D014FF00F024FF06A
:104770000F03FDF7BBF8FB7D1A464FEA0313D31A6C
:1047800003F155034FF00102009218464FF01C014F
:104790004FF011024FF01103FDF7A8F8FDF73AFFB3
:1047A000FCF738FDF3E600BFFCF734FD3B69184623
:1047B00007F11807BD4680BD80B584B002AF7860B0
:1047C0004FF0010300934FF000004FF000014FF055
:1047D00000024FF00B03FDF78BF94FF0010300933C
:1047E0004FF001004FF000014FF001024FF00B03BA
:1047F000FDF77EF94FF0010300934FF07F004FF07B
:1048000000014FF07F024FF00B03FDF771F94FF0FD
:10481000010300934FF07E004FF000014FF07E0245
:104820004FF00B03FDF764F94FF0010300934FF0D5
:1048300002004FF00C014FF07D024FF00C03FDF72A
:1048400057F94FF0010300934FF002004FF00D01B4
:104850004FF07D024FF00D03FDF74AF94FF00200D3
:104860004FF00B014FF00102FDF70EFF4FF001007A
:104870004FF00C014FF00102FDF706FF4FF07D00F5
:104880004FF00B014FF00102FDF7FEFE4FF07E00EE
:104890004FF00C014FF00102FDF7F6FE78684FF083
:1048A00000014FF00202FDF7C7FD07F10807BD4602
:1048B00080BD00BF80B400AFBD4680BC704700BF64
:1048C00080B483B000AF7860054A7B6843F0BE6374
:1048D00043F42023D36007F10C07BD4680BC70472A
:1048E00000ED00E080B487B000AF78604FF00003C7
:1048F0007B614FF000033B614FF00F03FB607B686F
:10490000DB78002B3FD02B4BDB686FEA030303F40B
:10491000E0634FEA13237B617B69C3F104033B61CE
:104920007B69FA6822FA03F3FB607B685B781A46BE
:104930003B6902FA03F37B617B689B781A46FB684C
:1049400002EA03037A6942EA03037B617B694FEA67
:1049500003137B6118497B681B787A69D2B2CB1844
:1049600083F80023144B7A6812784FEA5212D2B2BD
:104970007968097801F01F014FF0010000FA01F198
:1049800043F8221011E00C4B7A6812784FEA521269
:10499000D2B27968097801F01F014FF0010000FAE6
:1049A00001F102F1200243F8221007F11C07BD4675
:1049B00080BC704700ED00E000E100E080B483B00F
:1049C00000AF78603960074A3B6823F0604323F00A
:1049D0007F0379680B43936007F10C07BD4680BCE9
:1049E000704700BF00ED00E080B483B000AF024626
:1049F0000B46FA71BB71BB79002B07D00A4B0A4AF0
:104A00001169FA7941EA02021A6108E0064B064A86
:104A10001169FA796FEA020201EA02021A6107F1EA
:104A20000C07BD4680BC704700ED00E080B483B049
:104A300000AF78607B68042B06D1094B084A1268E6
:104A400042F004021A6005E0054B054A126822F0A4
:104A500004021A6007F10C07BD4680BC704700BF16
:104A600010E000E080B400AFBD4680BC704700BFDE
:104A700080B400AFFEE700BF80B400AFFEE700BF28
:104A800080B400AFFEE700BF80B400AFFEE700BF18
:104A900080B400AFBD4680BC704700BF80B400AF9B
:104AA000BD4680BC704700BF80B400AFBD4680BC2F
:104AB000704700BF80B400AFBD4680BC704700BFE8
:104AC00080B400AF4FF080434FF08042128A92B220
:104AD00022F0010292B21A82BD4680BC704700BF2C
:104AE00080B400AF054B054A128A92B222F001024F
:104AF00092B21A82BD4680BC704700BF00040040DD
:104B000080B400AFBD4680BC704700BF80B400AF2A
:104B1000BD4680BC704700BF80B400AFBD4680BCBE
:104B2000704700BF80B582B000AF78607A681A4BDA
:104B30009A420CD14FF400704FF0010102F078FC62
:104B40004FF400704FF0000102F072FC20E07A6830
:104B5000124B9A420CD14FF480604FF0010102F0E9
:104B600067FC4FF480604FF0000102F061FC0FE041
:104B70007A680B4B9A420BD14FF400404FF0010181
:104B800002F056FC4FF400404FF0000102F050FCE0
:104B900007F10807BD4680BD002401400028014000
:104BA000003C014080B485B000AF786039604FF0C0
:104BB0000003FB604FF00003FB727B685B68FB60E7
:104BC000FB6823F4702323F48073FB603B681A684E
:104BD0003B681B794FEA032342EA0303FA6842EA7F
:104BE0000303FB607B68FA685A607B689B68FB6024
:104BF000FA681A4B02EA0303FB603B68DA683B6819
:104C00009B681A433B685B794FEA430342EA03031C
:104C1000FA6842EA0303FB607B68FA689A607B6883
:104C2000DB6AFB60FB6823F47003FB603B681B7C62
:104C300003F1FF33DAB2FB7A42EA0303FB72FB7A39
:104C40004FEA0353FA6842EA0303FB607B68FA68A1
:104C5000DA6207F11407BD4680BC7047FDF7F1FF2B
:104C600080B483B000AF78607B684FF000021A60B8
:104C70007B684FF000021A717B684FF000025A7196
:104C80007B684FF000029A607B684FF00002DA60A8
:104C90007B684FF001021A7407F10C07BD4680BC17
:104CA000704700BF80B483B000AF78600B46FB70E4
:104CB000FB78002B06D07B689B6843F001027B6881
:104CC0009A6005E07B689B6823F001027B689A602C
:104CD00007F10C07BD4680BC704700BF80B483B0AD
:104CE00000AF78600B46FB70FB78002B06D07B682A
:104CF0009B6843F480727B689A6005E07B689B68E0
:104D000023F480727B689A6007F10C07BD4680BC73
:104D1000704700BF80B485B000AF786013460A4684
:104D20007A807B704FF00003FB737B88FB737B788A
:104D3000002B06D07B685A68FB7B1A437B685A605D
:104D400007E07B685A68FB7B6FEA03031A407B68C5
:104D50005A6007F11407BD4680BC704780B483B029
:104D600000AF78607B689B6843F008027B689A60BC
:104D700007F10C07BD4680BC704700BF80B485B00A
:104D800000AF78604FF00003FB737B689B6803F013
:104D90000803002B03D04FF00103FB7302E04FF038
:104DA0000003FB73FB7B184607F11407BD4680BC6C
:104DB000704700BF80B483B000AF78607B689B68A9
:104DC00043F004027B689A6007F10C07BD4680BC83
:104DD000704700BF80B485B000AF78604FF000032B
:104DE000FB737B689B6803F00403002B03D04FF038
:104DF0000103FB7302E04FF00003FB73FB7B1846DB
:104E000007F11407BD4680BC704700BF80B483B073
:104E100000AF78600B46FB70FB78002B06D07B68F8
:104E20009B6843F4A0027B689A6005E07B689B68FE
:104E300023F4A0027B689A6007F10C07BD4680BC92
:104E4000704700BF80B485B000AF78604FF00003BA
:104E5000FB737B689B6803F48003002B03D04FF047
:104E60000103FB7302E04FF00003FB73FB7B18466A
:104E700007F11407BD4680BC704700BF80B485B001
:104E800000AF78600B46FB704FF00003FB604FF003
:104E90000003BB607B685B68FB60FB6823F46043D6
:104EA000FB60FB7803F1FF33BB60BB684FEA433321
:104EB000FA6842EA0303FB607B68FA685A6007F10C
:104EC0001407BD4680BC704780B483B000AF7860E3
:104ED0000B46FB70FB78002B06D07B685B6843F4C5
:104EE00000627B685A6005E07B685B6823F40062BF
:104EF0007B685A6007F10C07BD4680BC704700BF55
:104F000080B485B000AF7860F970BA707B704FF0F4
:104F10000003FB604FF00003BB60FB78092B29D92D
:104F20007B68DB68FB60FA7813464FEA43039B1803
:104F3000A3F11E034FF0070202FA03F3BB60BB6844
:104F40006FEA0303FA6802EA0303FB607978FA78F0
:104F500013464FEA43039B18A3F11E0301FA03F320
:104F6000BB60FA68BB6842EA0303FB607B68FA68CF
:104F7000DA6024E07B681B69FB60FA7813464FEA2D
:104F800043039B184FF0070202FA03F3BB60BB68B0
:104F90006FEA0303FA6802EA0303FB607978FA78A0
:104FA00013464FEA43039B1801FA03F3BB60FA6808
:104FB000BB6842EA0303FB607B68FA681A61BB784E
:104FC000062B29D87B685B6BFB60BB7803F1FF3253
:104FD00013464FEA83039B184FF01F0202FA03F3B4
:104FE000BB60BB686FEA0303FA6802EA0303FB6075
:104FF000F978BB7803F1FF3213464FEA83039B181D
:1050000001FA03F3BB60FA68BB6842EA0303FB6082
:105010007B68FA685A6355E0BB780C2B29D87B680B
:105020001B6BFB60BA7813464FEA83039B18A3F10E
:1050300023034FF01F0202FA03F3BB60BB686FEA61
:105040000303FA6802EA0303FB60F978BA781346AF
:105050004FEA83039B18A3F1230301FA03F3BB6018
:10506000FA68BB6842EA0303FB607B68FA681A636C
:1050700028E07B68DB6AFB60BA7813464FEA83035B
:105080009B18A3F141034FF01F0202FA03F3BB6028
:10509000BB686FEA0303FA6802EA0303FB60F9786E
:1050A000BA7813464FEA83039B18A3F1410301FA30
:1050B00003F3BB60FA68BB6842EA0303FB607B68EA
:1050C000FA68DA6207F11407BD4680BC704700BF7A
:1050D00080B483B000AF78600B46FB70FB78002B88
:1050E00006D07B689B6843F480127B689A6005E079
:1050F0007B689B6823F480127B689A6007F10C0739
:10510000BD4680BC704700BF80B483B000AF7860FC
:105110007B68DB6C9BB2184607F10C07BD4680BC70
:10512000704700BF80B400AF024B1B681846BD46F5
:1051300080BC70474C24014080B483B000AF7860DD
:105140000B46FB70FB78002B06D07B685B6843F452
:1051500080627B685A6005E07B685B6823F480624C
:105160007B685A6007F10C07BD4680BC704700BFE2
:1051700080B483B000AF78600B46FB70FB78002BE7
:1051800006D07B685B6843F480527B685A6005E018
:105190007B685B6823F480527B685A6007F10C07D8
:1051A000BD4680BC704700BF80B485B000AF78605A
:1051B00039604FF00003FB607B689B68FB60FB6815
:1051C00023F4E043FB60FA683B6842EA0303FB60B8
:1051D0007B68FA689A6007F11407BD4680BC704787
:1051E00080B483B000AF78600B46FB70FB78002B77
:1051F00006D07B689B6843F400427B689A6005E0B8
:105200007B689B6823F400427B689A6007F10C0777
:10521000BD4680BC704700BF80B483B000AF7860EB
:105220000B46FB70FB78002B06D07B689B6843F431
:1052300002127B689A6005E07B689B6823F4021287
:105240007B689A6007F10C07BD4680BC704700BFC1
:1052500080B485B000AF78604FF00003FB737B68CB
:105260009B6803F40013002B03D04FF00103FB7382
:1052700002E04FF00003FB73FB7B184607F11407B5
:10528000BD4680BC704700BF80B487B000AF786077
:10529000F970BA707B704FF000037B614FF0000330
:1052A0003B614FF00003FB60FB78092B29D97B6839
:1052B000DB687B61FA7813464FEA43039B18A3F13E
:1052C0001E034FF0070202FA03F33B613B696FEAEA
:1052D00003037A6902EA03037B617978FA7813465B
:1052E0004FEA43039B18A3F11E0301FA03F33B614A
:1052F0007A693B6942EA03037B617B687A69DA6019
:1053000024E07B681B697B61FA7813464FEA43030C
:105310009B184FF0070202FA03F33B613B696FEA07
:1053200003037A6902EA03037B617978FA7813460A
:105330004FEA43039B1801FA03F33B617A693B6927
:1053400042EA03037B617B687A691A617B689B6B25
:105350007B617B6903F440134FEA1353FB60FB68E6
:10536000DBB26FEA0303DAB2BB78D318DBB203F126
:105370000303DBB21A4613464FEA83039B184FF030
:105380001F0202FA03F33B613B696FEA03037A6988
:1053900002EA03037B61F978FB68DBB26FEA03037F
:1053A000DAB2BB78D318DBB203F10303DBB21A46DF
:1053B00013464FEA83039B1801FA03F33B617A69B2
:1053C0003B6942EA03037B617B687A699A6307F170
:1053D0001C07BD4680BC704780B485B000AF7860C4
:1053E0000B46FB704FF00003FB604FF00003BB6007
:1053F0007B689B6BFB60FB6823F44013FB60FB78CE
:1054000003F1FF33BB60BB684FEA0353FA6842EA1B
:105410000303FB607B68FA689A6307F11407BD46D3
:1054200080BC704780B485B000AF786013460A46F0
:10543000FA703B804FF00003FB607B68FB60FA78FA
:10544000FB68D318FB60FB683A881A6007F1140701
:10545000BD4680BC704700BF80B485B000AF7860A7
:105460000B46FB704FF00003FB607B68FB60FA7833
:10547000FB68D31803F12803FB60FB681B689BB231
:10548000184607F11407BD4680BC704780B485B04C
:1054900000AF786039604FF00003FB607B685B68A9
:1054A000FB60FB6823F4400323F40073FB60FA689D
:1054B0003B6842EA0303FB607B68FA685A6007F1C5
:1054C0001407BD4680BC704780B483B000AF7860DD
:1054D00013460A467A803B807A887B685A623A880B
:1054E0007B689A6207F10C07BD4680BC704700BF1D
:1054F00080B485B000AF78600B46FB704FF00003BE
:10550000FB607B685B68FB60FB6823F01F03FB604C
:10551000FB78FA6842EA0303FB607B68FA685A602A
:1055200007F11407BD4680BC704700BF80B483B04C
:1055300000AF0346FB71FB79002B06D0084B084AED
:10554000926842F400029A6005E0054B044A9268B2
:1055500022F400029A6007F10C07BD4680BC704738
:105560000024014080B485B000AF78600B46FB702A
:105570004FF00003FB737B681A68FB7802EA0303B1
:10558000002B03D04FF00103FB7302E04FF0000348
:10559000FB73FB7B184607F11407BD4680BC7047C0
:1055A00080B483B000AF78600B46FB70FB786FEA85
:1055B00003027B681A6007F10C07BD4680BC704788
:1055C00080B487B000AF78600B467B804FF000035B
:1055D000FB754FF000033B614FF00003FB607B88DD
:1055E0004FEA13239BB23B617B685A687B88DBB22E
:1055F00002EA0303FB607B681A683B6902EA030363
:10560000002B06D0FB68002B03D04FF00103FB7585
:1056100002E04FF00003FB75FB7D184607F11C0705
:10562000BD4680BC704700BF80B485B000AF7860D5
:105630000B467B804FF00003FB737B884FEA1323FC
:105640009BB2FB73FB7B6FEA03027B681A6007F176
:105650001407BD4680BC704780B483B000AF78604B
:105660007B681A684FF6FE7302EA03037A681360D8
:105670007B684FF000021A607B684FF000025A60AE
:105680007B684FF000029A607B684FF00002DA609E
:105690007A68434B9A4206D1424B424A526842F0E2
:1056A0000F025A6077E07A683F4B9A4206D13D4B31
:1056B0003C4A526842F0F0025A606CE07A683B4B18
:1056C0009A4206D1374B374A526842F470625A60A8
:1056D00061E07A68364B9A4206D1324B314A5268C1
:1056E00042F470425A6056E07A68324B9A4206D1D0
:1056F0002C4B2C4A526842F470225A604BE07A6874
:105700002D4B9A4206D1274B264A526842F470022A
:105710005A6040E07A68294B9A4206D1214B214ACF
:10572000526842F070625A6035E07A68244B9A42BF
:1057300006D1244B234A526842F00F025A602AE0F5
:105740007A68214B9A4206D11E4B1E4A526842F09B
:10575000F0025A601FE07A681C4B9A4206D1194B3E
:10576000184A526842F470625A6014E07A68184B22
:105770009A4206D1134B134A526842F470425A605F
:1057800009E07A68134B9A4205D10E4B0D4A5268D4
:1057900042F470225A6007F10C07BD4680BC704786
:1057A00008000240000002401C000240300002409D
:1057B00044000240580002406C0002408000024059
:1057C00008040240000402401C040240300402406D
:1057D000440402405804024080B485B000AF7860B1
:1057E00039604FF00003FB607B681B68FB60FB685F
:1057F00023F4FE4323F0F003FB603B689A683B68A8
:105800001B6A1A433B681B691A433B685B691A436E
:105810003B689B691A433B68DB691A433B685B6AD8
:105820001A433B689B6A42EA0303FA6842EA0303AD
:10583000FB607B68FA681A603B68DA687B685A60CC
:105840003B681A687B689A603B685A687B68DA60D4
:1058500007F11407BD4680BC704700BF80B483B019
:1058600000AF78607B684FF000021A607B684FF0F1
:1058700000025A607B684FF000029A607B684FF02C
:105880000002DA607B684FF000021A617B684FF01B
:1058900000025A617B684FF000029A617B684FF00A
:1058A0000002DA617B684FF000021A627B684FF0F9
:1058B00000025A627B684FF000029A6207F10C07FF
:1058C000BD4680BC704700BF80B483B000AF786035
:1058D0000B46FB70FB78002B06D07B681B6843F0FF
:1058E00001027B681A6007E07B681A684FF6FE7356
:1058F00002EA03037A68136007F10C07BD4680BC17
:10590000704700BF80B485B000AFF860B96013463F
:10591000FB71FB79002B06D0FB681A68BB681A4341
:10592000FB681A6007E0FB681A68BB686FEA03034C
:105930001A40FB681A6007F11407BD4680BC704727
:1059400080B483B000AF78600B467B807A887B6838
:105950005A6007F10C07BD4680BC704780B483B025
:1059600000AF78607B685B689BB2184607F10C0754
:10597000BD4680BC704700BF80B485B000AF786082
:105980004FF00003FB734FF00003BB607B6803F034
:105990008053002B03D00D4B1B68BB6002E00C4B07
:1059A0001B68BB60BA687B6802EA0303002B03D064
:1059B0004FF00103FB7302E04FF00003FB73FB7B2E
:1059C000184607F11407BD4680BC7047000402402A
:1059D0000000024080B483B000AF78607B6803F0C1
:1059E0008053002B03D0064B7A685A6002E0054BC7
:1059F0007A685A6007F10C07BD4680BC704700BF4B
:105A0000000402400000024080B485B000AF78601E
:105A10004FF00003FB734FF00003BB607B6803F0A3
:105A20008053002B03D00D4B1B68BB6002E00C4B76
:105A30001B68BB60BA687B6802EA0303002B03D0D3
:105A40004FF00103FB7302E04FF00003FB73FB7B9D
:105A5000184607F11407BD4680BC70470004024099
:105A60000000024080B483B000AF78607B6803F030
:105A70008053002B03D0064B7A685A6002E0054B36
:105A80007A685A6007F10C07BD4680BC704700BFBA
:105A9000000402400000024080B400AF0A4B4FF007
:105AA00000021A60084B4FF000025A60064B4FF09C
:105AB00000029A60044B4FF00002DA60024B034A86
:105AC0005A61BD4680BC704700040140FFFF0F00D3
:105AD00080B485B000AF78604FF00003FB603A4BB4
