:020000040800F2
:1000000088270020151E0008AD3F0008B93F0008F2
:10001000C13F0008C93F0008D13F000800000000B0
:10002000000000000000000000000000D93F0008B0
:10003000E53F000800000000F13F00086D120008D5
:100040007D1E00087D1E00087D1E00087D1E000824
:100050007D1E00087D1E00087D1E00087D1E000814
:100060007D1E00087D1E00087D1E00087D1E000804
:100070007D1E00087D1E00087D1E00087D1E0008F4
:100080007D1E00087D1E0008B54000087D1E00088A
:10009000FD3F00087D1E00087D1E00087D1E000833
:1000A0007D1E00087D1E00087D1E00087D1E0008C4
:1000B0007D1E000825400008454000087D1E000800
:1000C0007D1E00087D1E00087D1E00087D1E0008A4
:1000D0002D410008094000087D1E00087D1E000813
:1000E000294200087D1E000815400008000000009D
:1000F0000000000000000000000000000000000000
:1001000000000000000000005FF808F180B582B038
:1001100000AF0346FB80FB88002B07D10A4B1B680E
:100120004FF001021A824FF0000307E0074B1B68F3
:100130001B689847044B1B6803F10A03184607F134
:100140000807BD4680BD00BFD0170020CC17002097
:1001500080B500AF104B1B68DA78104B5B789A4281
:1001600016D80D4B1B689B78002B11D10A4B1B68CE
:100170009B88002B0CD1084B1B68074A1268D27869
:100180009A72074B1B685B6898474FF0000301E0C9
:100190004FF00203184680BDD01700202400002035
:1001A000CC17002080B582B000AF0346FB80FB88EF
:1001B000002B07D10A4B1B684FF001021A824FF047
:1001C000000307E0074B1B689B689847044B1B68BC
:1001D00003F10C03184607F10807BD4680BD00BFB8
:1001E000D0170020CC17002080B582B000AF204B84
:1001F0001B689B691F4A126851791E4A1268D2789F
:100200000846114698470346FB711A4B1B689B7AB8
:10021000002B25D0FB79002B09D1164B1B681B79CD
:10022000002B04D1134B1B689B78002B02D04FF09E
:10023000020317E0FB79002B12D10F4B1B68DB6820
:1002400098470C4B1B680B4A12685279DA72094BBB
:100250001B68084A1268D2781A734FF0000301E055
:100260004FF00203184607F10807BD4680BD00BFE6
:10027000A8170020D0170020CC17002080B584B02C
:1002800000AF0346FB80FB88002B07D1494B1B685E
:100290004FF002021A824FF0000386E0464B4FF007
:1002A00000021A80434B1B681B7803F07F03002B6E
:1002B0002CD1404B1B685B7AFB73FB7B03F0200364
:1002C000002B07D03C4B1B7843F00203DAB23A4BC9
:1002D0001A7006E0384B1B7823F00203DAB2364B73
:1002E0001A70FB7B03F04003002B07D0324B1B78C6
:1002F00043F00103DAB2304B1A7051E02E4B1B78F9
:1003000023F00103DAB22C4B1A7049E0294B1B6829
:100310001B7803F07F03012B01D1274B45E0254BD0
:100320001B681B7803F07F03022B36D1214B1B681F
:100330005B79BB73BB7B03F00F037B73BB7B5BB24F
:10034000002B14DA7B7B4FEA830303F1804303F530
:10035000B8431B689BB203F03003102B20D1164B1F
:100360001B7843F00103DAB2134B1A7018E07B7B61
:100370004FEA830303F1804303F5B8431B689BB244
:1003800003F44053B3F5805F0AD10B4B1B7843F065
:100390000103DAB2084B1A7002E04FF0000304E0E8
:1003A000064B1B681B699847034B184607F110075B
:1003B000BD4680BDD017002058070020CC17002074
:1003C00090B587B000AF784B1B681B7803F07F03B4
:1003D0003B613B69002B0BD1734B1B68724A12685F
:1003E000527A22F02002D2B25A724FF00003D5E0C6
:1003F0003B69022B40F0D0806B4B1B685B88002B65
:1004000004D1694B1B681B79002B02D04FF002030B
:10041000C4E0664BFB60644B1B685B79BB60BB68E8
:1004200023F080037B607B683B605F4B1B685B79DC
:10043000DBB25BB2002B0CDA3B684FEA830303F1BB
:10044000804303F5B8431B689BB203F030037B6124
:100450000BE03B684FEA830303F1804303F5B843A5
:100460001B689BB203F440537B61FB681B781A4600
:100470007B689A4207D97B69002B04D04A4B1B68E2
:100480009B7A002B02D14FF0020387E0BB6803F098
:100490008003002B19D03B684FEA830303F18043AC
:1004A00003F5B8431B689BB203F03003102B6CD1EB
:1004B0003B68DBB2184601F051FB3B68DBB21846E3
:1004C0004FF0300101F020FA5FE03B684FEA830310
:1004D00003F1804303F5B8431B689BB203F4405318
:1004E000B3F5805F51D13B68002B29D13B68DAB26C
:1004F0002F4B93F82C301046194601F003FC3B6853
:100500004FEA830303F1804303F5B8431B689BB2B2
:1005100023F4804323F070039CB284F480539CB294
:1005200084F400539CB23B684FEA830303F1804399
:1005300003F5B8431F4A44EA020292B21A6024E06B
:100540003B68DBB2184601F0D7FA3B684FEA8303F9
:1005500003F1804303F5B8431B689BB223F4804347
:1005600023F070039CB284F480539CB284F4005353
:100570009CB23B684FEA830303F1804303F5B84321
:100580000C4A44EA020292B21A600B4B1B685B6988
:1005900098474FF0000301E04FF00203184607F1BF
:1005A0001C07BD4690BD00BFD017002024000020CE
:1005B000280000208080FFFFCC17002090B585B078
:1005C00000AF454B1B685B79BB60BB6823F08003C1
:1005D0007B607B683B60404B1B685B79DBB25BB246
:1005E000002B0CDA3B684FEA830303F1804303F5E9
:1005F000B8431B689BB203F03003FB600BE03B6821
:100600004FEA830303F1804303F5B8431B689BB2B1
:1006100003F44053FB60314B1B781A463B689A4207
:100620000CD92D4B1B685B88002B07D1FB68002B76
:1006300004D0294B1B689B7A002B02D14FF0020398
:1006400045E0BB6803F08003002B1DD03B684FEAF8
:10065000830303F1804303F5B8431B689BB223F483
:10066000E04323F040039CB284F010039CB23B684B
:100670004FEA830303F1804303F5B843184A44EA81
:10068000020292B21A601CE03B684FEA830303F156
:10069000804303F5B8431B689BB223F4804323F0E7
:1006A00070039CB284F480539CB23B684FEA83038E
:1006B00003F1804303F5B843094A44EA020292B2C7
:1006C0001A60084B1B689B6998474FF00003184657
:1006D00007F11407BD4690BDD0170020240000206C
:1006E0008080FFFFCC17002080B500AF084B1B684F
:1006F000074A1268527A42F02002D2B25A72054B6F
:100700001B68DB6998474FF00003184680BD00BFA7
:10071000D0170020CC17002080B485B000AF03466E
:100720003960FB800E4B1B685B8AFB60FB88002BEB
:100730000BD10B4B1B683A689188FA6892B28A1AFF
:1007400092B21A824FF0000303E03B681A68FB681C
:10075000D318184607F11407BD4680BC704700BF88
:10076000D017002080B584B000AF404B1B6803F168
:100770001003BB60BB681B887B60BB689B68002B59
:100780002FD07B68002B2CD0BB689B88FB60FA685D
:100790007B689A4201D97B68FB60BB689B68FA68FA
:1007A00092B2104698473860BB681A88FB689BB2C3
:1007B000D31A9AB2BB681A80BB685A88FB689BB28E
:1007C000D3189AB2BB685A804FF0000001F05EFA6D
:1007D00003461A46FB689BB2386811461A4603F076
:1007E00037FFBB681B88002B0DD0214B4FF44052C4
:1007F0001A804FF000004FF0000101F065FA1D4B28
:100800004FF030021A80BB681A88BB689B889A42F6
:1008100005D3164B1B684FF003021A7221E0BB6828
:100820001B88002B05D0114B1B684FF005021A7274
:1008300017E0BB681B88002B13D10C4B1B684FF0D3
:1008400006021A720C4B1B689BB21A460B4BD3184C
:100850004FEA43034FF000021A60064B4FF030029C
:100860001A8007F11007BD4680BD00BFD0170020D9
:100870006007002062070020505C0040023000202A
:1008800080B586B000AF424B1B6803F11003FB60DC
:10089000FB681B88BB603E4B1B681B7A7B61BB6897
:1008A000002B25D17B69042B22D13A4B1B78012BDD
:1008B00016D1394B1B689BB21A46384BD3184FEAF6
:1008C00043034FF000021A60354B4FF030021A809C
:1008D0004FF004037B612F4B4FF000021A704DE084
:1008E0004FF007037B612E4B4FF010021A8045E05A
:1008F000FB689B883B61BA683B699A4202D84FF01B
:10090000040301E04FF002037B613A69BB689A423D
:1009100001D9BB683B61FB689B683A6992B210469B
:10092000984778604FF0000001F092F903461A46AC
:100930003B699BB2786811461A4603F043FE3B6957
:100940009BB24FF00000194601F0BEF9FB681A880F
:100950003B699BB2D31A9AB2FB681A80FB685A882B
:100960003B699BB2D3189AB2FB685A800C4B4FF08C
:1009700030021A800B4B4FF440521A80044B1B6814
:100980007A69D2B21A7207F11807BD4680BD00BF5E
:10099000D0170020F8060020505C004002300020F4
:1009A000620700206007002080B584B000AF4FF0E0
:1009B0000203FB73634B1B685B787B60614B1B68B6
:1009C0001B7803F07F03002B5BD17B68092B04D1DC
:1009D000FFF7BEFB0346FB737EE07B68052B1DD152
:1009E000584B1B68DB78DBB25BB2002B0EDB554B40
:1009F0001B689B78002B09D1524B1B689B88002BEE
:100A000004D1504B1B689B7A002B03D04FF0080396
:100A1000BB608DE04FF00003FB735DE07B68032B50
:100A200012D1484B1B68DB78012B09D1454B1B6861
:100A30009B88002B04D1FFF757FE0346FB734BE066
:100A40004FF00203FB7347E07B68012B43D13D4B22
:100A50001B68DB78012B10D13A4B1B689B88002B5D
:100A60000BD1384B1B685B7A03F02003002B04D0BA
:100A7000FFF7A6FC0346FB732EE04FF00203FB7367
:100A80002AE0304B1B681B7803F07F03012B07D152
:100A90007B680B2B20D1FFF7A7FB0346FB731BE002
:100AA000284B1B681B7803F07F03022B0FD17B6858
:100AB000012B04D1FFF784FC0346FB730CE07B6839
:100AC000032B09D1FFF77AFD0346FB7304E04FF0D7
:100AD0000203FB7300E000BFFB7B002B0FD01A4B1F
:100AE0001B685B697A68D2B2104698470346FB736D
:100AF000FB7B032B03D14FF00903BB6018E0FB7BAA
:100B0000002B03D04FF00803BB6011E04FF0060349
:100B1000BB600E4B1B689BB21A460D4BD3184FEAB5
:100B200043034FF000021A600A4B4FF030021A8064
:100B3000044B1B68BA68D2B21A7207F11007BD469F
:100B400080BD00BFD0170020A8170020505C0040D7
:100B5000023000206207002080B58AB000AF874BCA
:100B60001B685B78BB614FF000037B624FF00003B2
:100B70007B61BB69062B24D1804B1B681B7803F07B
:100B80007F03002B40F0E4807C4B1B689B78FB7458
:100B9000FB7C012B04D17A4B1B68DB697B62D7E0BD
:100BA000FB7C022B04D1764B1B681B6A7B62CFE077
:100BB000FB7C032B40F0CC80714B1B685B6A7B6233
:100BC000C6E0BB69002B7DD16C4B1B685B88002B9A
:100BD00078D16A4B1B68DB88022B73D1674B1B688B
:100BE0001B79002B6ED1654B1B681B7803F07F03CC
:100BF000002B07D1614B1B689B88002B02D1614BF6
:100C00007B62A5E05D4B1B681B7803F07F03012B23
:100C100016D15B4B1B689B69584A12685279104683
:100C20004FF0000198470346002B40F08680534B5D
:100C30001B689B7A002B00F08280524B7B6287E01E
:100C40004E4B1B681B7803F07F03022B79D14B4B73
:100C50001B685B7903F00F03FB60484B1B685B79F3
:100C600003F07003BB60454B1B685B79DBB25BB282
:100C7000002B0CDAFB684FEA830303F1804303F592
:100C8000B8431B689BB203F03003FB610BE0FB68C9
:100C90004FEA830303F1804303F5B8431B689BB21B
:100CA00003F44053FB61384B1B781A46FB689A42A9
:100CB00049D9BB68002B48D1FB69002B47D0314B89
:100CC0007B6245E0BB69082B09D12C4B1B681B7864
:100CD00003F07F03002B3BD12C4B7B6238E0BB69D8
:100CE0000A2B35D1254B1B681B7803F07F03012BA2
:100CF0002ED1224B1B689B7A002B29D01F4B1B68DF
:100D00005B88002B24D11D4B1B681B79002B1FD146
:100D10001A4B1B68DB88012B1AD1194B1B689B6986
:100D2000164A1268527910464FF000019847034660
:100D3000002B0DD1164B7B620AE000BF08E000BF1C
:100D400006E000BF04E000BF02E000BF00E000BF1B
:100D50007B6A002B1ED0094B1B687A6992B25A82BB
:100D6000064B1B687A6A9A617B6A4FF000009847CD
:100D70004FF0000387F8233021E000BFD017002098
:100D8000A81700207D020008240000200D010008A3
:100D9000A5010008444B1B681B69444A126852783D
:100DA00010469847034687F8233097F82330032BE3
:100DB00005D13E4B1B684FF009021A726FE03B4BA6
:100DC0001B681A8A4FF6FF739A4205D1374B1B688E
:100DD0004FF009021A7262E097F82330022B04D018
:100DE000324B1B681B8A002B05D1304B1B684FF020
:100DF00008021A7253E02D4B1B681B78DBB25BB202
:100E0000002B42DA294B1B68DB887B60274B1B6871
:100E10001B8A1A467B689A4205D9244B1B687A685C
:100E200092B21A8227E0214B1B681A8A1F4B1B685B
:100E3000DB889A421FD21D4B1B681A8A1A4B1B680B
:100E400093F82C309A4204D2194B4FF000021A70DA
:100E500011E0164B1B681B8A134A126892F82C206B
:100E600093FBF2F102FB01F29B1A002B03D1104B12
:100E70004FF001021A700D4B1B680B4A126892F872
:100E80002C209A82FFF7FCFC09E0084B1B684FF00E
:100E900003021A72074B4FF440521A8000BF07F149
:100EA0002807BD4680BD00BFA8170020D01700202E
:100EB000F80600206007002090B583B000AF4FF027
:100EC0000103FB80354B1B689BB21A46344BD31889
:100ED0004FEA43031B689BB203F1005303F54053F1
:100EE0004FEA43033B602F4B1B681B7A092B3ED014
:100EF0002C4B1A683B681978117003F101033B60B1
:100F0000284B1A683B681978517003F101033B6064
:100F10003A68FB884FEA4303D3183B60214B1C68B7
:100F20003B681A8803F102033B60104600F056FF4D
:100F3000034663803A68FB884FEA4303D3183B605B
:100F4000184B1C683B681A8803F102033B6010468B
:100F500000F044FF0346A3803A68FB884FEA43034E
:100F6000D3183B600F4B1B683A681288DA800D4B30
:100F70001B684FF001021A720A4B1B68DB88002BBA
:100F800002D1FFF711FD01E0FFF7E6FD00F096F852
:100F90000346184607F10C07BD4690BD505C004063
:100FA00004300020D017002080B582B000AF214B64
:100FB0001B681B7A7B607B68022B02D07B68042B4A
:100FC00006D1FFF75DFC1B4B1B681B7A7B6023E09F
:100FD0007B68062B1DD1174B1B685B78052B10D146
:100FE000144B1B681B7803F07F03002B09D1114BB6
:100FF0001B68DB78184600F08BF80F4B1B681B6AE8
:1010000098470E4B1B689B6898474FF008037B601E
:1010100002E04FF008037B60064B1B687A68D2B28F
:101020001A7200F04BF80346184607F10807BD4650
:1010300080BD00BFD0170020CC170020A8170020CB
:1010400080B582B000AF1B4B1B681B7A7B607B684E
:10105000022B02D07B68042B03D14FF008037B6086
:101060001AE07B68032B02D07B68052B06D1FFF7C3
:1010700079FB104B1B681B7A7B600DE07B68072BAC
:1010800007D10D4B1B68DB6898474FF008037B6066
:1010900002E04FF008037B60064B1B687A68D2B20F
:1010A0001A7200F00BF80346184607F10807BD4610
:1010B00080BD00BFD0170020A817002080B500AF6A
:1010C0000F4B93F82C304FF00000194600F01AFE39
:1010D0000C4B1B681B7A082B07D10B4B4FF480522B
:1010E0001A800A4B4FF010021A80064B1B681B7ABD
:1010F000092B14BF00230123DBB2184680BD00BFBB
:1011000028000020D0170020600700206207002080
:1011100080B485B000AF0346FB711C4B1B78BB60ED
:101120004FF00003FB6022E0FB68DBB24FEA830371
:1011300003F1804303F5B843FA68D2B24FEA820262
:1011400002F1804202F5B842126892B2114640F6AE
:101150000F7201EA020242F4004242F08002F96892
:10116000C9B20A431A60FB6803F10103FB60FA6825
:10117000BB689A42D8D3064BFA7962F07F02D2B2AA
:101180001A6007F11407BD4680BC70472400002098
:101190004C5C004080B400AFBD4680BC704700BFCF
:1011A00080B400AF0E4B0E4AD26942F00102DA6100
:1011B0004FF080434FF017021A854FF080434FF0F5
:1011C00008021A804FF080434FF08042128A92B298
:1011D00022F0010292B21A82BD4680BC704700BF65
:1011E0000010024080B483B000AF0346FB804FF094
:1011F0008043FA889A854FF080434FF000029A842A
:101200004FF080434FF08042128892B242F00102C8
:1012100092B21A8000BF4FF080431B8A9BB203F04A
:101220000103002BF7D04FF080434FF08042128A29
:1012300092B222F0010292B21A8207F10C07BD4667
:1012400080BC704780B483B000AF7860064B7A688A
:101250001A6000BF044B1B68002BFBD107F10C0781
:10126000BD4680BC704700BF5C07002080B400AF63
:10127000064B1B68002B05D0044B1B6803F1FF32A3
:10128000024B1A60BD4680BC704700BF5C0700205F
:1012900080B485B000AF786039604FF00003FB8107
:1012A0007B681B88FB817A682F4B9A4213D07A683F
:1012B0002E4B9A420FD07B68B3F1804F0BD07A68E7
:1012C0002B4B9A4207D07A682A4B9A4203D07A680D
:1012D000294B9A4209D1FB8923F07003FB813B68BB
:1012E0005A88FB8942EA0303FB817A68234B9A42BE
:1012F0000DD07A68224B9A4209D0FB8923F44073BF
:10130000FB813B68DA88FB8942EA0303FB817B6847
:10131000FA891A803B689A887B689A853B681A88A4
:101320007B681A857A68104B9A420FD07A680F4B07
:101330009A420BD07A68134B9A4207D07A68124BC4
:101340009A4203D07A68114B9A4204D13B681B7AC7
:101350001A467B681A867B684FF001029A8207F171
:101360001407BD4680BC7047002C0140003401408A
:101370000004004000080040000C00400010004045
:10138000001400400040014000440140004801407A
:1013900080B483B000AF786013460A467A807B70D1
:1013A0007B78002B09D07B689B899AB27B8842EAC4
:1013B00003039AB27B689A810BE07B689B899AB29F
:1013C0007B886FEA03039BB202EA03039AB27B684D
:1013D0009A8107F10C07BD4680BC704790B583B079
:1013E00000AF4FF00003FB8079E18B4B1B889BB271
:1013F000DBB203F00F03DAB2884B1A70874B1B780D
:10140000002B40F01581864B1B689AB2854B1A80E1
:10141000844B1B889BB203F030039AB2824B1A8034
:10142000804B1B889BB203F440539AB27D4B1A80C9
:101430007B4B1B689BB24BF6BF7403EA040484F435
:10144000005484F02004764AA1B2784B41EA0303A9
:101450009BB21360704B1B889BB203F01003002BF0
:1014600042D16F4A6E4B1B689BB2194648F60F7308
:1014700001EA03031360FFF797FD694B1B689BB2FA
:101480004BF6BF7403EA0404664B1B889BB203F45B
:1014900080539BB2002B01D084F48054614B1B8895
:1014A0009BB203F400539BB2002B01D084F4005490
:1014B0005D4B1B889BB203F010039BB2002B01D045
:1014C00084F01004584B1B889BB203F020039BB29E
:1014D000002B01D084F02004514AA1B2534B41EAC1
:1014E00003039BB2136007E14D4B1B689BB2FB806B
:1014F000FB889BB203F40063002B42D0484A484B60
:101500001B689BB2194640F68F7301EA0303136010
:10151000FFF7D2FC424B1B689BB24BF6BF7403EA49
:101520000404404B1B889BB203F480539BB2002BF6
:1015300001D084F480543B4B1B889BB203F40053CE
:101540009BB2002B01D084F40054374B1B889BB214
:1015500003F010039BB2002B01D084F01004324B37
:101560001B889BB203F020039BB2002B01D084F0B8
:1015700020042B4AA1B22D4B41EA03039BB2136016
:10158000BAE0FB889BB29BB21BB2002B80F2A78013
:10159000234A234B1B689BB2194640F68F7301EA1E
:1015A00003031360FFF74CFD1D4B1B689BB24BF60A
:1015B000BF7403EA04041B4B1B889BB203F48053E3
:1015C0009BB2002B01D084F48054164B1B889BB235
:1015D00003F400539BB2002B01D084F40054124B4F
:1015E0001B889BB203F010039BB2002B01D084F048
:1015F00010040D4B1B889BB203F020039BB2002B01
:1016000001D084F02004064AA1B2084B41EA03034A
:101610009BB2136070E000BF86230020AC1700204F
:10162000005C004060070020620700208080FFFF10
:10163000334B1B784FEA830303F1804303F5B84330
:101640001B689BB2FB80FB889BB29BB21BB2002B3A
:101650001FDA2B4B1B784FEA830303F1804303F51A
:10166000B843274A12784FEA820202F1804202F51B
:10167000B842126892B2114640F68F7201EA020235
:101680001A601F4B1B7803F1FF321E4B53F82230B8
:101690009847FB889BB203F08003002B1FD0184BA8
:1016A0001B784FEA830303F1804303F5B843144AE0
:1016B00012784FEA820202F1804202F5B8421268C3
:1016C00092B2114648F60F7201EA02021A600C4B00
:1016D0001B7803F1FF320C4B53F8223098470B4B29
:1016E0001B689AB20A4B1A80094B1B889BB29BB2AB
:1016F0001BB2002BFFF679AE07F10C07BD4690BD7B
:10170000AC170020DC060020C0060020445C00402E
:101710008623002080B500AF154B154A126842F0B1
:1017200001021A60124A124B5968124B01EA030374
:1017300053600F4A0E4B1B6823F0847323F48033ED
:1017400013600B4B0A4A126822F480221A60084B7D
:10175000074A526822F4FE025A60054B4FF41F02FA
:101760009A6000F00BF8044B4FF000629A6080BD65
:10177000001002400000FFF800ED00E080B500AF6F
:1017800000F002F880BD00BF80B483B000AF4FF01E
:1017900000037B604FF000033B603B4B3A4A12680A
:1017A00042F480321A60384B1B6803F400333B600C
:1017B0007B6803F101037B603B68002B03D17B68EE
:1017C000B3F5A06FEFD1304B1B6803F40033002B4F
:1017D00003D04FF001033B6002E04FF000033B6099
:1017E0003B68012B4BD1294B284A126842F010026A
:1017F0001A60264B254A126822F003021A60234B16
:10180000224A126842F002021A601F4B1E4A5268B6
:101810005A601D4B1C4A52685A601B4B1A4A526848
:1018200042F480625A60184B174A526822F47C12C4
:101830005A60154B144A526842F4E8125A60124B2F
:10184000114A126842F080721A6000BF0E4B1B688A
:1018500003F00073002BF9D00B4B0B4A526822F0B7
:1018600003025A60084B084A526842F002025A606A
:1018700000BF054B5B6803F00C03082BF9D107F19F
:101880000C07BD4680BC704700100240002002409B
:1018900080B483B000AF0346FB80064AF9884FF658
:1018A000F87301EA0303136007F10C07BD4680BC1F
:1018B000704700BF505C004080B483B000AF024668
:1018C0000B46FA71BB80FB794FEA830303F1804337
:1018D00003F5B843FA794FEA820202F1804202F539
:1018E000B842126892B222F4EC4222F0700291B235
:1018F000BA8841EA020292B292B21A6007F10C076A
:10190000BD4680BC704700BF90B482B000AF0246B5
:101910000B46FA71BB80FB794FEA830303F18043E6
:1019200003F5B8431B689BB223F4E04323F0400364
:101930009CB2BB8803F010039BB2002B02D084F052
:1019400010039CB2BB8803F020039BB2002B02D093
:1019500084F020039CB2FB794FEA830303F18043B8
:1019600003F5B843044A44EA020292B21A6007F14E
:101970000807BD4690BC70478080FFFF90B482B0DE
:1019800000AF02460B46FA71BB80FB794FEA830336
:1019900003F1804303F5B8431B689BB223F48043F3
:1019A00023F070039CB2BB8803F480539BB2002BDE
:1019B00002D084F480539CB2BB8803F400539BB2E2
:1019C000002B02D084F400539CB2FB794FEA8303CE
:1019D00003F1804303F5B843044A44EA020292B299
:1019E0001A6007F10807BD4690BC70478080FFFF72
:1019F00090B482B000AF0346FB71FB794FEA8303DA
:101A000003F1804303F5B8431B689BB223F4E04322
:101A100023F040039CB284F010039CB284F02003B6
:101A20009CB2FB794FEA830303F1804303F5B8438B
:101A3000044A44EA020292B21A6007F10807BD465E
:101A400090BC70478080FFFF90B482B000AF034627
:101A5000FB71FB794FEA830303F1804303F5B8433D
:101A60001B689BB223F4804323F070039CB284F480
:101A700080539CB284F400539CB2FB794FEA8303F9
:101A800003F1804303F5B843044A44EA020292B2E8
:101A90001A6007F10807BD4690BC70478080FFFFC1
:101AA00080B483B000AF0346FB71FB794FEA830338
:101AB00003F1804202F5B842FB794FEA830303F158
:101AC000804303F5B8431B689BB223F4F8734FEAD5
:101AD00003534FEA13539BB243F07F4343F47F0316
:101AE00043F4004343F080039BB29BB2136007F1C1
:101AF0000C07BD4680BC704780B483B000AF03467E
:101B0000FB71FB794FEA830303F1804303F5B8438C
:101B10001B689BB203F48043002B19D0FB794FEA7A
:101B2000830303F1804303F5B843FA794FEA820255
:101B300002F1804202F5B842126892B2114640F6B4
:101B40000F7201EA020242F4404242F080021A603F
:101B500007F10C07BD4680BC704700BF80B483B05E
:101B600000AF0346FB71FB794FEA830303F1804327
:101B700003F5B8431B689BB203F04003002B19D058
:101B8000FB794FEA830303F1804303F5B843FA7905
:101B90004FEA820202F1804202F5B842126892B224
:101BA000114640F60F7201EA020242F4004242F08E
:101BB000C0021A6007F10C07BD4680BC704700BF29
:101BC00080B483B000AF02460B46FA71BB800D4B68
:101BD0001B689BB21A46FB794FEAC303D31803F183
:101BE000005303F540534FEA4303BA884FEA5202C9
:101BF00092B24FEA42021A6007F10C07BD4680BC60
:101C0000704700BF505C004080B483B000AF024614
:101C10000B46FA71BB800C4B1B689BB21A46FB79D2
:101C20004FEAC303D218094BD3184FEA4303BA88CB
:101C30004FEA520292B24FEA42021A6007F10C07D1
:101C4000BD4680BC704700BF505C0040043000209F
:101C500080B483B000AF0346FB710B4B1B689BB293
:101C60001A46FB794FEAC303D31803F1005303F577
:101C700040534FEA43031B689BB2184607F10C0719
:101C8000BD4680BC704700BF505C004080B483B04C
:101C900000AF0346FB710A4B1B689BB21A46FB79E7
:101CA0004FEAC303D218074BD3184FEA43031B680C
:101CB0009BB2184607F10C07BD4680BC704700BFB9
:101CC000505C00400430002080B483B000AF024676
:101CD0000B46FA71BB80094B1B689BB21A46FB7915
:101CE0004FEAC303D218064BD3184FEA4303BA880E
:101CF0001A6007F10C07BD4680BC7047505C00407D
:101D00000230002080B485B000AF02460B46FA7165
:101D1000BB801F4B1B689BB21A46FB794FEAC3037B
:101D2000D2181C4BD3184FEA4303BB60BB883E2B31
:101D300015D9BB884FEA5313FB81BB8803F01F03FF
:101D4000002B03D1FB8903F1FF33FB81FB894FEAB1
:101D5000832343F400431A46BB681A6013E0BB8830
:101D60004FEA5303FB81BB8803F00103DBB2002B76
:101D700003D0FB8903F10103FB81FB894FEA832335
:101D80001A46BB681A6007F11407BD4680BC70474D
:101D9000505C00400630002080B483B000AF0346A2
:101DA000FB710C4B1B689BB21A46FB794FEAC303CD
:101DB000D218094BD3184FEA43031B689BB24FEA72
:101DC00083534FEA93539BB2184607F10C07BD4665
:101DD00080BC7047505C00400630002080B485B065
:101DE00000AF0346FB80FB88FB73FB884FEA13239D
:101DF0009BB29AB2FB7B4FEA03239BB242EA0303F6
:101E00009BB2BB81BB89184607F11407BD4680BC55
:101E1000704700BF80B582B000AF134B7B60134B9F
:101E20003B600BE07B681A683B681A603B6803F113
:101E300004033B607B6803F104037B603A680C4B4E
:101E40009A42EFD30B480C494FF000028842B8BFCA
:101E500040F8042BFADBFFF75DFC00F047FF07F1C9
:101E60000807BD4680BD00BF50510008000000209B
:101E7000F8060020F80600208823002080B400AF78
:101E8000FEE700BF80B500AF4FF0010000F068F83A
:101E90004FF4802001F018FD074B4FF480221A60A8
:101EA000054B4FF008025A71034B4FF001029A7133
:101EB000014801F061FC80BD7817002080B500AFBB
:101EC0004FF0000001F02AFB4FF400004FF0010139
:101ED00001F030FC80BD00BF80B582B000AF0A4B7E
:101EE0007B607B689B7A002B04D0084B4FF0050287
:101EF0001A6003E0054B4FF001021A60FFF70AFC7D
:101F000007F10807BD4680BDB0170020100700206C
:101F100080B582B000AF4FF4A06002F031FA4FF00C
:101F200014033B714FF002037B714FF00003BB7150
:101F30004FF00103FB7107F10403184602F032FA77
:101F40004FF02A033B714FF000037B7107F104034C
:101F5000184602F027FA07F10807BD4680BD00BF0A
:101F600080B584B000AF0346FB71FB79012B1AD119
:101F70004FF008004FF0010101F0BAFB4FF48073FD
:101F8000BB814FF00303BB734FF01003FB7307F1EA
:101F90000C031148194600F039F90F484FF48071CD
:101FA00000F014FA13E04FF48073BB814FF0030389
:101FB000BB734FF00403FB7307F10C03064819468B
:101FC00000F024F904484FF4807100F00DFA07F195
:101FD0001007BD4680BD00BF000C014080B582B037
:101FE00000AF384B1B78012B67D0374B1B68B3F51C
:101FF000805F03D1344B4FF000021A60324B1A68F5
:10200000324B1B689A4204D12E4B4FF000021A70DB
:1020100053E02D4B1A682D4B1B689A4206D92A4B68
:102020001B68C3F580522A4B1A6006E0274B1A68DA
:10203000254B1B68D21A264B1A60254B1B68402B78
:1020400012D9214B1B68FB804FF04003BB801E4B15
:102050001B6803F140021C4B1A601D4B1B68A3F167
:1020600040021B4B1A6010E0174B1B68FB80184B9B
:102070001B68BB80144B1A68154B1B68D218124B97
:102080001A60134B4FF000021A600E4B4FF0010222
:102090001A70FA880F4BD218BB8810464FF0C00157
:1020A0001A4602F08FFABB884FF001001946FFF77D
:1020B0000BFE4FF00100FFF79BFC07F10807BD4640
:1020C00080BD00BF0807002000070020FC0600209C
:1020D000040700206807002080B483B000AF0346E7
:1020E000FB710C4B1B680C4AF979D154094B1B68E6
:1020F00003F10102074B1A60064B1B68B3F5805FC2
:1021000003D1044B4FF000021A6007F10C07BD46E3
:1021100080BC7047FC0600206807002080B584B0B2
:1021200000AF104B1B68FB600F4B1B68BB600F4B75
:102130001B687B60FA687B68D318FB60FB68002B28
:102140000BD0F8680A494FF0080200F015F8B8689B
:1021500008494FF0040200F00FF807F11007BD46E0
:1021600080BD00BFE8F7FF1FECF7FF1FF0F7FF1F70
:10217000020000201200002080B487B000AFF86099
:10218000B9601346FB714FF00003FB754FF000037D
:10219000FB7531E0FB684FEA1373092B0DD8FB7D0B
:1021A0004FEA4303BA68D318FA684FEA1272D2B200
:1021B00002F13002D2B21A700CE0FB7D4FEA430309
:1021C000BA68D318FA684FEA1272D2B202F1370233
:1021D000D2B21A70FB684FEA0313FB60FB7D4FEA33
:1021E000430303F10103BA68D3184FF000021A70D9
:1021F000FB7D03F10103FB75FA7DFB799A42C9D39C
:1022000007F11C07BD4680BC704700BF80B489B091
:1022100000AF786039604FF00003FB614FF00003BE
:102220003B614FF00003BB614FF00003FB604FF0D8
:1022300000037B614FF00003BB603B68DB7803F079
:102240000F03FB613B68DB7803F01003002B05D024
:102250003B689B78FA6942EA0303FB613B681B8891
:1022600003F0FF03002B51D07B681B687B614FF0AC
:102270000003BB6144E0BB694FF0010202FA03F3C3
:10228000FB603B681B881A46FB6802EA03033B615C
:102290003A69FB689A422FD1BB694FEA8303FB601E
:1022A000FB684FF00F0202FA03F3BB60BB686FEAF2
:1022B00003037A6902EA03037B61FB68FA6902FAA5
:1022C00003F37A6942EA03037B613B68DB78282BDE
:1022D00007D1BB694FF0010202FA03F27B685A6131
:1022E0000AE03B68DB78482B06D1BB694FF001025E
:1022F00002FA03F27B681A61BB6903F10103BB6157
:10230000BB69072BB7D97B687A691A603B681B8861
:10231000FF2B56D97B685B687B614FF00003BB6184
:1023200049E0BB6903F108034FF0010202FA03F32D
:10233000FB603B681B881A46FB6802EA03033B61AB
:102340003A69FB689A4232D1BB694FEA8303FB606A
:10235000FB684FF00F0202FA03F3BB60BB686FEA41
:1023600003037A6902EA03037B61FB68FA6902FAF4
:1023700003F37A6942EA03037B613B68DB78282B2D
:1023800008D1BB6903F108034FF0010202FA03F21E
:102390007B685A613B68DB78482B08D1BB6903F145
:1023A00008034FF0010202FA03F27B681A61BB696D
:1023B00003F10103BB61BB69072BB2D97B687A6962
:1023C0005A6007F12407BD4680BC704780B483B0D3
:1023D00000AF78600B467B807A887B681A6107F1D2
:1023E0000C07BD4680BC704780B483B000AF7860F6
:1023F0000B467B807A887B685A6107F10C07BD46E3
:1024000080BC704790B484B000AF02460B46FA71AE
:10241000BB714FF00003FB60BB7903F003034FEA8D
:1024200083034FF00F0202FA03F3FB601B4BBA79F0
:102430004FEA9202D2B21949B8794FEA9000C0B27D
:1024400000F1020051F82000F9686FEA010100EA8A
:10245000010102F1020243F82210104BBA794FEA4F
:102460009202D2B20D49B8794FEA9000C0B200F1A1
:10247000020051F82000FC79B97901F003014FEA1C
:10248000810104FA01F140EA010102F1020243F87C
:10249000221007F11007BD4690BC704700000140B4
:1024A00080B500AFFFF73AFE064B1B684FF0000205
:1024B0009A7200F0EBF901F037FD034B4FF0000288
:1024C0001A6080BDD01700201007002080B500AF33
:1024D000484B1B684FF000029A72464B1B68464AF5
:1024E000D2795A72434B1B684FF00002DA724FF0F8
:1024F0000000FFF7CDF94FF000004FF40071FFF737
:10250000DBF94FF000004FF01001FFF7FDF94FF03D
:1025100000004FF04001FFF777FB4FF000004FF055
:102520008001FFF74DFB4FF00000FFF7B9FA334B86
:1025300093F82C304FF000001946FFF7E3FB4FF003
:102540000000FFF781FA4FF001004FF00001FFF7A4
:10255000B3F94FF001004FF0C001FFF731FB4FF02E
:1025600001004FF02001FFF7CFF94FF001004FF0CD
:102570000001FFF703FA4FF002004FF4C061FFF7CC
:102580009BF94FF002004FF48071FFF719FB4FF0F9
:1025900002004FF00001FFF7F1F94FF002004FF099
:1025A0002001FFF7B1F94FF003004FF00001FFF7F2
:1025B00083F94FF003004FF48871FFF725FB4FF0CC
:1025C00003004FF04001FFF79DFB4FF003004FF475
:1025D0004051FFF7D3F94FF003004FF00001FFF730
:1025E00093F94FF00000FEF793FD054B4FF0010209
:1025F0001A6080BDD0170020A450000828000020D9
:102600001007002080B483B000AF074B7B607B686D
:102610009B7A002B03D0054B4FF005021A6007F19F
:102620000C07BD4680BC7047B01700201007002083
:1026300080B400AF034B4FF004021A60BD4680BC6B
:10264000704700BF1007002080B400AF054B1B7817
:10265000202B03D1034B4FF000021A70BD4680BC03
:10266000704700BF0C07002080B400AFBD4680BC9F
:10267000704700BF80B584B000AF0346FB714FF0D8
:102680000003FB60FB79212B09D11A4B1B681B78D7
:1026900003F07F03212B12D1174BFB600FE0FB7976
:1026A000202B0CD1134B1B681B7803F07F03212BCD
:1026B00001D1124BFB60124B4FF020021A70FB68E5
:1026C000002B02D14FF002030EE00A4B1B68FA68A0
:1026D0009A61084B1B684FF000025A82FB684FF06A
:1026E000000098474FF00003184607F11007BD4659
:1026F00080BD00BFD017002011280008492800081D
:102700000C07002080B483B000AF0346FB710D4B73
:102710001B681B7803F07F03212B0BD1FB79022B65
:1027200002D14FF0000307E0FB79222B02D14FF0DA
:10273000000301E04FF00203184607F10C07BD4605
:1027400080BC7047D017002080B582B000AF034630
:10275000FB80FB8818460449FDF7DEFF0346184658
:1027600007F10807BD4680BD7C00002080B582B01F
:1027700000AF0346FB80FB8818460449FDF7CCFFF9
:102780000346184607F10807BD4680BD84000020B7
:1027900080B584B000AF0346FB800D4B1B68DB782F
:1027A000FB73FB7B042B02D94FF000030AE0FB7B99
:1027B0004FEAC302074BD318FA8810461946FDF7B3
:1027C000ABFF0346184607F11007BD4680BD00BFAA
:1027D000D01700208C00002080B483B000AF0246E8
:1027E0000B46FA71BB71BB79002B02D04FF002038C
:1027F00007E0FB79012B02D94FF0020301E04FF013
:102800000003184607F10C07BD4680BC704700BFA7
:1028100080B483B000AF0346FB80FB88002B07D158
:10282000074B1B684FF008021A824FF0000300E0CC
:10283000044B184607F10C07BD4680BC704700BF2B
:10284000D01700201C00002080B483B000AF0346E6
:10285000FB80FB88002B07D1074B1B684FF0080259
:102860001A824FF0000300E0044B184607F10C07F2
:10287000BD4680BC704700BFD01700201C00002060
:1028800080B400AF30BFBD4680BC704780B582B019
:1028900000AF4FF00100FFF763FB4FF00103FB8037
:1028A0000E4BFA881A600E4B4FF000021A800B4B49
:1028B0000B4A12881A600B4B4FF000021A60084B4B
:1028C0004FF4E0521A80054B054A12881A604FF007
:1028D0000003184607F10807BD4680BD405C004074
:1028E000D4170020445C004080B584B000AF4FF0A6
:1028F0000003FB604FF00003BB604FF000033B6040
:10290000514B1B68FB804FF00003FB6011E0FB683C
:102910004FEA830303F1804303F5B8431B689BB27E
:1029200019464A4BFA6843F82210FB6803F1010389
:10293000FB60FB68072BEAD9FB8843F48063FB80CC
:10294000414BFA881A60FB8843F00103FB803E4B41
:10295000FA881A60FB8823F00103FB803A4BFA885F
:102960001A6000BF3A4B1B689BB203F48063002BD4
:10297000F8D0374B4FF6FF321A604FF00003FB6080
:1029800010E0FB684FEA830303F1804303F5B8438B
:102990002E4AF96852F8212092B21A60FB6803F1BE
:1029A0000103FB60FB68072BEBD9FB8843F00803AE
:1029B000FB80254BFA881A60234B1B68FB80FB8841
:1029C00043F00403FB80204BFA881A60214B1B68FC
:1029D0003B60204B1B68BB60BB6823F00303BB60FC
:1029E0001C4BBA681A601C4B1B4A126942F0040265
:1029F0001A61174B1B689BB203F48053002B08D15C
:102A0000FFF73EFF144B144A126922F004021A61C8
:102A100016E00F4B4EF6FF721A600B4B1B68FB80E3
:102A2000FB8823F00803FB80074BFA881A60094BE8
:102A30003A681A60084B084A126922F004021A61C7
:102A400007F11007BD4680BD405C004084170020A0
:102A5000445C00400070004000ED00E080B582B0B2
:102A600000AF0A4B1B68FB80FB8823F00403FB804C
:102A7000064BFA881A60FFF72FFA044B4FF43F42D7
:102A80001A6007F10807BD4680BD00BF405C0040EA
:102A900080B584B000AF0346FB71FB79072B02D0F1
:102AA000464BFA791A70454B1B78DBB2052B78D868
:102AB00001A252F823F000BFD12A0008F12A000831
:102AC000072B0008192B00083D2B0008632B00087A
:102AD0003B4B1B68002B06D1FFF7C0FF374B4FF075
:102AE00006021A7066E0354B4FF005021A7061E07D
:102AF000FFF7B4FF314B4FF004021A70304B4FF028
:102B000001021A6056E02D4B4FF002025A702B4B17
:102B10004FF003021A704DE0284B5B78DBB203F1F3
:102B2000FF33DAB2254B5A70244B5B78DBB2002BB3
:102B30003DD1224B4FF004021A703BE0214B1B6841
:102B4000FB81FB8943F01003FB811E4BFA891A605D
:102B50001A4B4FF005021A70184B4FF00A025A70C8
:102B600028E0164B5B78DBB203F1FF33DAB2134B8C
:102B70005A70124B5B78DBB2002B1AD1114B1B68D9
:102B8000FB81FB8923F01003FB810E4BFA891A604D
:102B90000A4B4FF006021A70094B4FF000021A6000
:102BA00008E0064B4FF006021A7000BF02E000BFBB
:102BB00000E000BF07F11007BD4680BD8017002070
:102BC00018070020405C004080B500AF094B0A4A5E
:102BD0001A60084B1B684FF002021A72074B084A32
:102BE0001A60084B084A1A60044B1B681B68984718
:102BF00080BD00BFD0170020B0170020A81700200C
:102C000028000020CC1700205800002080B483B09A
:102C100000AF0346FB71094B97F907204FEA5212A8
:102C2000F97901F01F014FF0010000FA01F143F8BA
:102C3000221007F10C07BD4680BC704700E100E0A0
:102C400080B483B000AF03463960FB7197F9073059
:102C5000002B0DDA0E49FB7903F00F03A3F10403F7
:102C60003A68D2B24FEA0212D2B2CB181A760AE010
:102C7000084997F907303A68D2B24FEA0212D2B245
:102C8000CB1883F8002307F10C07BD4680BC7047C2
:102C900000ED00E000E100E080B582B000AF7860B8
:102CA0007A686FF07F439A4202D94FF0010316E031
:102CB0000D4B7A6822F07F4202F1FF325A604FF0EA
:102CC000FF304FF00F01FFF7BBFF074B4FF0000243
:102CD0009A60054B4FF007021A604FF00003184648
:102CE00007F10807BD4680BD10E000E080B598B050
:102CF00000AFA348FFF7D0FF0346002B00D0FEE74C
:102D0000FFF7C0F8FFF7DAF8FFF702F9FFF75CFF0B
:102D100000F03EFBFEF744FA01F0D0FC4FF4804097
:102D200000F00AFC4FF400704FF0010100F0E0FCED
:102D30004FF01200FFF76AFF4FF00003FB624FF005
:102D4000000387F830304FF0000387F831304FF43C
:102D500000237B634FF00003BB634FF0010387F850
:102D60003C3007F12C038748194600F0BBFD85482D
:102D70004FF009014FF001024FF0050300F0C4FECF
:102D800080484FF408714FF0010200F025FE7D48A5
:102D90004FF0010100F004FE7A4800F041FE00BF50
:102DA000784800F04DFE0346002BF9D1754800F03D
:102DB00063FE00BF734800F06FFE0346002BF9D19D
:102DC00070484FF0010100F083FE4FF0240387F8B4
:102DD00028304FF0010387F829304FF0030387F8BC
:102DE0002A304FF0010387F82B3007F128031846EB
:102DF00001F0D8FA4FF480404FF0010100F09AFC46
:102E0000614B614A128892B222F4807292B21A80A7
:102E10004FF00003BB824FF00003FB824FF40063CE
:102E20003B834FF000037B834FF00003BB834FF4E1
:102E30000073FB834FF008033B844FF000037B8457
:102E40004FF00703BB8407F114034F48194601F004
:102E500015FB4D484FF060014FF0010201F07AFB85
:102E600049484FF0010101F055FB4FF001004FF0D0
:102E70000D01FFF7C7FA4FF40053FB604FF000035A
:102E80003B744FF008037B744FF00103BB7407F1F0
:102E90000C03184600F070FC4FF0280387F8283028
:102EA0004FF0000387F829304FF0000387F82A30ED
:102EB0004FF0010387F82B3007F12803184601F083
:102EC00071FA324B314AD26942F00202DA61304B78
:102ED00040F60F621A852E4B4FF014029A852C4B48
:102EE0002B4A928892B242F0200292B29A80284BEA
:102EF000274A128892B242F0010292B21A804FF031
:102F000004004FF0010100F015FC4FF08F033B80EF
:102F10004FF000037B804FF06403BB804FF0000351
:102F2000FB803B461B481946FEF7B2F919484FF0A3
:102F300001014FF00102FEF72BFA4FF01E00FFF7E0
:102F400065FE00F0D1FA01F081FC00F0BBFA1248F6
:102F500001F04CFF01F0BCFC01F04AFD1FE000BF96
:102F60001DE000BF1BE000BF19E000BF17E000BF7D
:102F700015E000BF13E000BF11E000BF0FE000BF8D
:102F800040190100002401400038004000100240B8
:102F900000040040000800404851000800BF754B85
:102FA0001B78DBB2002B27D0724B4FF000021A7057
:102FB00001F0D0FC704B1B889BB2184601F098FEC4
:102FC00001F016FD6D4B1B889BB2184601F090FE78
:102FD00001F00EFD6A4B1B889BB2DBB2184601F074
:102FE00051FE01F005FD674B1B889BB2DBB2184612
:102FF00001F048FE01F06CFC634B1B78002BAED057
:10300000614B4FF000021A7000F07AFA5F4B1B78A8
:10301000432B38D15D4B5B78482BA2D15B4B9B781F
:10302000452BA0D1594BDB78432B9ED1574B1B79B5
:103030004B2B9CD1554B5B795F2B9AD1534B9B7992
:10304000492B98D1514BDB79442B96D14FF054004A
:10305000FFF742F84FF05200FFF73EF84FF04D00F7
:10306000FFF73AF84FF04500FFF736F84FF05400FD
:10307000FFF732F84FF03100FFF72EF84FF0300035
:10308000FFF72AF88BE7414B1B78492B40F08680ED
:103090004FF000004FF0000101F094FC3C4B1B6826
:1030A000184601F08DFE01F0A3FC3A4B1B68184650
:1030B00001F086FE01F09CFC374B1B78184601F0AE
:1030C000E1FD01F095FC314B5B78A3F13003A7F8EB
:1030D0004E302E4B9B78A3F13003A7F84C302B4B8E
:1030E000DB78A3F13003A7F84A30284B1B79A3F112
:1030F0003003A7F84830B7F84E301A464FEA42126C
:10310000D21A4FEA8202D3184FEAC3039AB2B7F831
:103110004C3019464FEA8101CB1819464FEA81001D
:1031200019460346CB184FEA83039BB2D3189AB2D1
:10313000B7F84A3019464FEA8101CB184FEA4303EA
:103140009BB2D3189AB2B7F84830D318A7F85E30BC
:10315000B7F85E30B3F5806F03D94FF00003A7F8DE
:103160005E30B7F85E30184601F0E4FC01F0B0FBC9
:1031700015E700BF3F070020DC1F0020D81F0020FC
:10318000420700204007002044070020E01F0020E5
:10319000FC0600200007002034070020784B1B7835
:1031A000532B76D1764B5B78A3F13003A7F84630EA
:1031B000734B9B78A3F13003A7F84430704BDB7856
:1031C000A3F13003A7F842306D4B1B79A3F1300314
:1031D000A7F84030B7F846301A464FEA4212D21AE2
:1031E0004FEA8202D3184FEAC3039AB2B7F84430C9
:1031F00019464FEA8101CB1819464FEA810019465A
:103200000346CB184FEA83039BB2D3189AB2B7F8A0
:10321000423019464FEA8101CB184FEA43039BB273
:10322000D3189AB2B7F84030D318A7F85C30B7F883
:103230005C30B3F5806F03D94FF00003A7F85C3022
:103240004FF00003A7F85A301CE0B7F85A204D4B56
:1032500033F812309BB24FEA13239BB2DBB218460D
:10326000FEF73AFFB7F85A20464B33F812309BB2BC
:10327000DBB21846FEF730FFB7F85A3003F101030E
:10328000A7F85A30B7F85A20B7F85C309A42DCD326
:1032900085E63B4B1B78512B7FF480AE4FF000034B
:1032A0007B65394B1B889AB2384B1B889BB29A427C
:1032B00009D9354B1B889BB21A46344B1B889BB2ED
:1032C000D31A7B6511E0304B1B889AB22F4B1B88B9
:1032D0009BB29A4209D22D4B1B889BB2C3F58062E8
:1032E000294B1B889BB2D3187B657B6D4FEA232348
:1032F000DBB21846FEF7F0FE7B6DDBB21846FEF738
:10330000EBFE4FF00400FEF7E7FE4FF000033B65D5
:1033100031E01E4B1B889BB21A461A4B33F8123011
:103320009BB24FEA13239BB2DBB21846FEF7D4FEE2
:10333000164B1B889BB21A46124B33F812309BB2C5
:10334000DBB21846FEF7C8FE104B1B889BB203F198
:1033500001039AB20D4B1A800C4B1B889AB240F2B3
:10336000FF339A4203D9094B4FF000021A803B6D9C
:1033700003F101033B653A6D7B6D9A42C9DB0EE6B2
:10338000E01F0020D8170020380700203A0700204F
:1033900080B582B000AF474A464BDB6943F08053AB
:1033A00043F40033D361434A424B9B6943F40273B5
:1033B00043F005039361404B3F4A526822F0E062BC
:1033C0005A603D4B3C4A526842F000725A603B4B97
:1033D0003A4A126822F070621A60394B384A5268D1
:1033E00022F0F0025A60364B354A526842F0300201
:1033F0005A60334B324A126822F0F0021A60304BA6
:103400002F4A126822F00F021A602D4B2C4A526884
:1034100022F470625A602A4B294A526842F40062D0
:103420005A60274B4FF480621A614FF01003FB7112
:103430004FF00303BB714FF01003BB8007F104038F
:103440001F481946FEF7E2FE1D484FF01001FEF737
:10345000CBFF4FF00403FB714FF00303BB714FF040
:103460002003BB8007F1040315481946FEF7CEFE82
:103470004FF01C03FB714FF00303BB714FF480430B
:10348000BB8007F104030E481946FEF7BFFE4FF05C
:103490000403FB714FF00303BB714FF42043BB8067
:1034A00007F1040306481946FEF7B0FE07F10807C6
:1034B000BD4680BD001002400000014000080140F0
:1034C000000C014080B400AF064B064A126842F47B
:1034D00040721A60034B4FF004025A61BD4680BC33
:1034E000704700BF000C014080B400AF034B4FF4A5
:1034F00000721A61BD4680BC704700BF000C0140DD
:1035000080B400AF044B044AD26882F40072DA60DF
:10351000BD4680BC704700BF000C014080B483B042
:1035200000AF7860034B7A681A6007F10C07BD465C
:1035300080BC7047D800424280B485B000AF78604C
:103540004FF00003FB600A4B5B68FB60FB6823F4F1
:103550004043FB60FA687B6842EA0303FB60044B6C
:10356000FA685A6007F11407BD4680BC704700BF77
:103570000010024080B487B000AF78604FF00003C5
:103580007B614FF000033B614FF00003FB604FF0A5
:103590000003BB60514B5B6803F00C037B617B69EC
:1035A000042B07D0082B09D0002B35D17B684C4A5F
:1035B0001A6035E07B684A4A1A6031E0474B5B6825
:1035C00003F470133B61454B5B6803F48033FB608D
:1035D0003B694FEA934303F102033B61FB68002B15
:1035E00006D13B693F4A02FB03F27B681A6017E091
:1035F0003A4B5B6803F40033002B06D03B69394A31
:1036000002FB03F27B681A600AE03B69344A02FB62
:1036100003F27B681A6003E07B68314A1A6000BFDE
:103620002E4B5B6803F0F0037B617B694FEA131359
:103630007B612D4A7B69D3181B78DBB2BB607B684A
:103640001A68BB6822FA03F27B685A60234B5B68F6
:1036500003F4E0637B617B694FEA13237B61224AB9
:103660007B69D3181B78DBB2BB607B685A68BB6888
:1036700022FA03F27B689A60184B5B6803F460538C
:103680007B617B694FEAD3237B61174A7B69D3183F
:103690001B78DBB2BB607B685A68BB6822FA03F216
:1036A0007B68DA600D4B5B6803F440437B617B69A8
:1036B0004FEA93337B610D4A7B69D3181B78DBB2E9
:1036C000BB607B68DA68BB68B2FBF3F27B681A61A7
:1036D00007F11C07BD4680BC704700BF00100240C8
:1036E00000127A0000093D00AC060020BC06002054
:1036F00080B483B000AF78600B46FB70FB78002B82
:1037000007D00B4B0A4A91697A6841EA02029A6132
:1037100008E0074B064A91697A686FEA020201EAFB
:1037200002029A6107F10C07BD4680BC704700BFDA
:103730000010024080B483B000AF78600B46FB708D
:10374000FB78002B07D00B4B0A4AD1697A6841EA13
:103750000202DA6108E0074B064AD1697A686FEA2B
:10376000020201EA0202DA6107F10C07BD4680BCE1
:10377000704700BF0010024080B485B000AF786091
:103780004FF00003FB603A4BFB607B689B79002B9A
:1037900059D0374B364A11687A6812686FEA0202CC
:1037A00001EA02021A60324B314A51687A681268A3
:1037B0006FEA020201EA02025A607B681B79FA682A
:1037C000D318FB60FB68FA6811687A68126841EAEE
:1037D00002021A60264B264A91687A6812686FEADC
:1037E000020201EA02029A60214B214AD1687A68FA
:1037F00012686FEA020201EA0202DA607B685B7912
:10380000102B10D11A4B1A4A91687A68126841EA53
:1038100002029A60164B164AD1687A68126841EA29
:103820000202DA601EE0124BFB607B685B79FA688B
:10383000D318FB60FB68FA6811687A68126841EA7D
:1038400002021A600EE07B681B79FA68D318FB60ED
:10385000FB68FA6811687A6812686FEA020201EA86
:1038600002021A6007F11407BD4680BC704700BF12
:103870000004014080B485B000AF78604FF00003D1
:10388000FB734FF00003BB600E4B1A687B6802EAC3
:103890000303BB600B4B5A697B6802EA0303002BEE
:1038A00006D0BB68002B03D04FF00103FB7302E08E
:1038B0004FF00003FB73FB7B184607F11407BD466E
:1038C00080BC70470004014080B483B000AF7860D2
:1038D000034B7A685A6107F10C07BD4680BC7047FC
:1038E0000004014080B485B000AF786039604FF0CB
:1038F0000003FB604FF00003FB727B685B68FB60BA
:10390000FB6823F4702323F48073FB603B681A6820
:103910003B681B794FEA032342EA0303FA6842EA51
:103920000303FB607B68FA685A607B689B68FB60F6
:10393000FA681A4B02EA0303FB603B68DA683B68EB
:103940009B681A433B685B794FEA430342EA0303EF
:10395000FA6842EA0303FB607B68FA689A607B6856
:10396000DB6AFB60FB6823F47003FB603B681B7C35
:1039700003F1FF33DAB2FB7A42EA0303FB72FB7A0C
:103980004FEA0353FA6842EA0303FB607B68FA6874
:10399000DA6207F11407BD4680BC7047FDF7F1FFFE
:1039A00080B483B000AF78600B46FB70FB78002BCF
:1039B00006D07B689B6843F001027B689A6005E053
:1039C0007B689B6823F001027B689A6007F10C0713
:1039D000BD4680BC704700BF80B485B000AF786042
:1039E00013460A467A807B704FF00003FB737B8896
:1039F000FB737B78002B06D07B685A68FB7B1A43ED
:103A00007B685A6007E07B685A68FB7B6FEA0303B8
:103A10001A407B685A6007F11407BD4680BC7047A6
:103A200080B483B000AF78607B689B6843F0080285
:103A30007B689A6007F10C07BD4680BC704700BFE9
:103A400080B485B000AF78604FF00003FB737B68F3
:103A50009B6803F00803002B03D04FF00103FB73B6
:103A600002E04FF00003FB73FB7B184607F11407DD
:103A7000BD4680BC704700BF80B483B000AF7860A3
:103A80007B689B6843F004027B689A6007F10C072F
:103A9000BD4680BC704700BF80B485B000AF786081
:103AA0004FF00003FB737B689B6803F00403002B5B
:103AB00003D04FF00103FB7302E04FF00003FB73F0
:103AC000FB7B184607F11407BD4680BC704700BF5A
:103AD00080B483B000AF78600B46FB70FB78002B9E
:103AE00006D07B689B6843F4A0027B689A6005E07F
:103AF0007B689B6823F4A0027B689A6007F10C073F
:103B0000BD4680BC704700BF80B485B000AF786010
:103B1000F970BA707B704FF00003FB604FF0000348
:103B2000BB60FB78092B29D97B68DB68FB60FA78DE
:103B300013464FEA43039B18A3F11E034FF00702FD
:103B400002FA03F3BB60BB686FEA0303FA6802EA98
:103B50000303FB607978FA7813464FEA43039B1816
:103B6000A3F11E0301FA03F3BB60FA68BB6842EAE3
:103B70000303FB607B68FA68DA6024E07B681B69FA
:103B8000FB60FA7813464FEA43039B184FF0070295
:103B900002FA03F3BB60BB686FEA0303FA6802EA48
:103BA0000303FB607978FA7813464FEA43039B18C6
:103BB00001FA03F3BB60FA68BB6842EA0303FB60E7
:103BC0007B68FA681A61BB78062B29D87B685B6B27
:103BD000FB60BB7803F1FF3213464FEA83039B1867
:103BE0004FF01F0202FA03F3BB60BB686FEA0303E6
:103BF000FA6802EA0303FB60F978BB7803F1FF324D
:103C000013464FEA83039B1801FA03F3BB60FA687B
:103C1000BB6842EA0303FB607B68FA685A6355E0BD
:103C2000BB780C2B29D87B681B6BFB60BA781346DA
:103C30004FEA83039B18A3F123034FF01F0202FAFC
:103C400003F3BB60BB686FEA0303FA6802EA03038D
:103C5000FB60F978BA7813464FEA83039B18A3F107
:103C6000230301FA03F3BB60FA68BB6842EA03036B
:103C7000FB607B68FA681A6328E07B68DB6AFB609C
:103C8000BA7813464FEA83039B18A3F141034FF020
:103C90001F0202FA03F3BB60BB686FEA0303FA6812
:103CA00002EA0303FB60F978BA7813464FEA83030C
:103CB0009B18A3F1410301FA03F3BB60FA68BB68E8
:103CC00042EA0303FB607B68FA68DA6207F11407D3
:103CD000BD4680BC704700BF80B58CB000AF786037
:103CE00039604FF00003FB624FF00003BB624FF0FE
:103CF00000037B624FF000033B624FF00003FB6167
:103D00007B68FB617B681B8A9BB2FB62FA6A4CF69C
:103D1000FF7302EA0303FB623B68DB88FA6A42EA4C
:103D20000303FB62FB6A9AB27B681A827B689B89F9
:103D30009BB2FB62FA6A4EF6F31302EA0303FB62DC
:103D40003B689A883B681B8942EA03039AB23B6846
:103D50005B8942EA03039BB2FA6A42EA0303FB620D
:103D6000FB6A9AB27B689A817B689B8A9BB2FB62F2
:103D7000FA6A4FF6FF4302EA0303FB623B689B8942
:103D8000FA6A42EA0303FB62FB6A9AB27B689A8290
:103D900007F108031846FFF7EDFBFA69384B9A4222
:103DA00002D17B69BB6201E03B69BB627B689B8996
:103DB0009BB29BB21BB2002B0FDABA6A13464FEAD2
:103DC00083039B184FEA83029A183B681B684FEAEB
:103DD0004303B2FBF3F37B620EE0BA6A13464FEA89
:103DE00083039B184FEA83029A183B681B684FEACB
:103DF0008303B2FBF3F37B627A6A224BA3FB0213C9
:103E00004FEA53134FEA0313FB62FB6A4FEA1313A3
:103E10004FF0640202FB03F37A6AD31A3B627B68B9
:103E20009B899BB29BB21BB2002B10DA3B6A4FEA14
:103E3000C30303F13202134BA3FB02134FEA5313E4
:103E400003F00703FA6A42EA0303FB620FE03B6AEE
:103E50004FEA031303F132020A4BA3FB02134FEAAA
:103E6000531303F00F03FA6A42EA0303FB62FB6A8F
:103E70009AB27B681A8107F13007BD4680BD00BF4A
:103E8000003801401F85EB5180B485B000AF7860E9
:103E900039604FF00003FB607B681B8A9BB2FB60BC
:103EA000FA684FF2FF0302EA0303FB603B681A88DB
:103EB0003B685B8842EA03039AB23B689B8842EA0C
:103EC00003039AB23B68DB8842EA03039BB2FA68B9
:103ED00042EA0303FB60FB689AB27B681A8207F12F
:103EE0001407BD4680BC704780B483B000AF7860D3
:103EF0000B46FB70FB78002B08D07B689B899BB23C
:103F000043F400539AB27B689A8107E07B689B89EF
:103F10009BB223F400539AB27B689A8107F10C0795
:103F2000BD4680BC704700BF80B400AF084B4FF067
:103F300000021A60074B4FF43F421A80064B054AB5
:103F400012881A604FF000031846BD4680BC7047C7
:103F5000445C0040D4170020405C004080B584B031
:103F600000AF03463960FB714FF00003FB60FB7943
:103F700003F07F03DBB21846FDF70EFF0346FB603C
:103F8000FB7903F07F03DBB21846FDF77FFE0346A3
:103F90001A46FB689BB2386811461A4600F058FB77
:103FA000FB68184607F11007BD4680BD80B400AF1E
:103FB000BD4680BC704700BF80B400AFFEE700BFC5
:103FC00080B400AFFEE700BF80B400AFFEE700BFE3
:103FD00080B400AFFEE700BF80B400AFBD4680BC38
:103FE000704700BF80B400AFBD4680BC704700BFC3
:103FF00080B400AFBD4680BC704700BF80B500AF45
:1040000000F012FF80BD00BF80B400AFBD4680BC91
:10401000704700BF80B500AF4FF48020FFF754FC1D
:1040200080BD00BF80B400AF054B054A128A92B232
:1040300022F0010292B21A82BD4680BC704700BFD6
:104040000004004080B400AF174B174A128A92B2A6
:1040500022F0010292B21A82144B1B889BB203F128
:1040600001039AB2114B1A80114B114A128892B275
:1040700042F4807292B21A800D4B0D4A128892B2AD
:1040800022F4807292B21A80074B074A128892B2C9
:1040900022F0010292B21A80034B4FF000029A8480
:1040A000BD4680BC704700BF0008004040070020AC
:1040B0000038004080B400AF174BDB6C9AB2174B4E
:1040C0001A80174B1B889BB21A46144B1B8899B257
:1040D000144B23F81210124B1B889BB203F10103FF
:1040E0009AB20F4B1A800E4B1B889AB240F2FF33E4
:1040F0009A4203D90A4B4FF000021A80084B1B88E2
:104100009BB203F01F03002B03D1074B4FF00102BA
:104110001A70BD4680BC704700240140DA1F0020A1
:1041200038070020D81700203E07002080B483B055
:1041300000AF364B354A128992B222F0010292B298
:104140001A81334B324A128892B222F0010292B2A3
:104150001A802E4B9B89FB802E4B1B889BB24FEA0B
:1041600093039BB24FEA83534FEA9353BB80FA8881
:1041700044F245539A421DD0FA8844F649139A42B4
:1041800018D0FA8844F64D539A4213D0FA8845F273
:1041900051139A420ED0FA8845F255539A4209D0EB
:1041A000FA8845F659139A4204D0FA8845F65D53C9
:1041B0009A421ED1184BFA881A80174B1B889BB263
:1041C00023F47E7323F007037B80104B7988BA8831
:1041D00041EA020292B29A81104B1B889BB203F112
:1041E00001039AB20D4B1A800D4B4FF001021A7069
:1041F00006E00C4BFA881A80094B4FF001021A7046
:1042000007F10C07BD4680BC704700BF0038004076
:1042100000080040DA1F0020DC1F002042070020B9
:104220003F070020D81F002080B500AF4FF400509A
:10423000FFF720FB0346002B0FD04FF40050FFF791
:1042400043FB064B4FF000029A84044B034A12884A
:1042500092B242F0010292B21A8080BD0008004082
:1042600080B582B000AF4FF003000849FFF776FE3B
:104270000346FB80064B4FF001021A704FF003001B
:10428000FDF7E2FB07F10807BD4680BDE01F0020F7
:104290004407002080B582B000AF264B1B78012B6D
:1042A00044D1254B1B68002B04D1224B4FF0000258
:1042B0001A703BE0204B1B68402B12D91F4B1B6828
:1042C000FB804FF04003BB801C4B1B6803F1400296
:1042D0001A4B1A60184B1B68A3F14002164B1A6068
:1042E00010E0164B1B68FB80134B1B68BB80134B05
:1042F0001A68114B1B68D218104B1A600E4B4FF006
:1043000000021A60FA880E4BD218BB8810464FF094
:10431000C0011A4600F056F9BB884FF0010019465B
:10432000FDF7D2FC4FF00100FDF762FB07F1080733
:10433000BD4680BD080700200407002000070020BC
:104340006807002080B500AF0B4B1B68052B12D10E
:104350000A4B1B68022B14BF00220122D2B203F1C8
:104360000101064B1960002A05D0044B4FF00002F2
:104370001A60FDF733FE80BD1007002048070020BB
:1043800080B483B000AF7860054A7B6843F0BE63B9
:1043900043F42023D36007F10C07BD4680BC70476F
:1043A00000ED00E080B487B000AF78604FF000030C
:1043B0007B614FF000033B614FF00F03FB607B68B4
:1043C000DB78002B3FD02B4BDB686FEA030303F451
:1043D000E0634FEA13237B617B69C3F104033B6114
:1043E0007B69FA6822FA03F3FB607B685B781A4604
:1043F0003B6902FA03F37B617B689B781A46FB6892
:1044000002EA03037A6942EA03037B617B694FEAAC
:1044100003137B6118497B681B787A69D2B2CB1889
:1044200083F80023144B7A6812784FEA5212D2B202
:104430007968097801F01F014FF0010000FA01F1DD
:1044400043F8221011E00C4B7A6812784FEA5212AE
:10445000D2B27968097801F01F014FF0010000FA2B
:1044600001F102F1200243F8221007F11C07BD46BA
:1044700080BC704700ED00E000E100E080B485B052
:1044800000AF786039604FF00003FB817B681B88C8
:10449000FB81FB8903F44153FB813B681A883B682D
:1044A0005B8842EA03039AB23B689B8842EA0303B3
:1044B0009AB23B68DB8842EA03039AB23B681B89E5
:1044C00042EA03039AB23B685B8942EA03039AB269
:1044D0003B689B8942EA03039AB23B68DB8942EA64
:1044E00003039AB2FB8942EA0303FB817B68FA89E2
:1044F0001A807B689B8B9BB223F400639AB27B6823
:104500009A833B681A8A7B681A8207F11407BD46B2
:1045100080BC704780B483B000AF78600B46FB70FE
:10452000FB78002B08D07B681B889BB243F04003CC
:104530009AB27B681A8007E07B681B889BB223F0E5
:1045400040039AB27B681A8007F10C07BD4680BC15
:10455000704700BF80B485B000AF786013460A464C
:10456000FA70BB704FF00003FB814FF00003BB817A
:10457000FB784FEA1313DBB2FB81FB894FF001029A
:1045800002FA03F3BB81BB78002B09D07B689B88C0
:104590009AB2BB8942EA03039AB27B689A800BE025
:1045A0007B689B889AB2BB896FEA03039BB202EADD
:1045B00003039AB27B689A8007F11407BD4680BC5A
:1045C000704700BF80B489B000AF786013460A46D8
:1045D0007A803B803B8803F101034FEA63037B61F0
:1045E0007B8803F1005303F540534FEA4303BB615B
:1045F0007B69FB6123E07B681B783B617B6803F18F
:1046000001037B607B681B784FEA03231A463B69F2
:1046100042EA0303FB60FB689AB2BB691A80BB697C
:1046200003F10203BB61BB6903F10203BB617B6859
:1046300003F101037B60FB6903F1FF33FB61FB695D
:10464000002BD8D107F12407BD4680BC704700BFBE
:1046500080B487B000AF786013460A467A803B800A
:104660003B8803F101034FEA6303FB607B8803F19E
:10467000005303F540534FEA43033B61FB687B6102
:1046800014E07B683A69126892B21A807B6803F181
:1046900001037B603B6903F104033B617B6803F129
:1046A00001037B607B6903F1FF337B617B69002B36
:1046B000E7D107F11C07BD4680BC704780B588B0C4
:1046C00000AF4FF004004FF00101FFF711F84FF079
:1046D0000303BB834FF01003FB774FF00303BB775B
:1046E00007F11C0329481946FDF790FD4FF014030C
:1046F000BB834FF01803FB774FF00303BB7707F141
:104700001C0322481946FDF781FD214BFB604FF445
:1047100080533B824FF000037B824FF00003BB824B
:104720004FF000033B834FF00C03FB8207F10C03B7
:1047300018481946FFF7D0FA4FF480737B814FF485
:104740000063BB804FF000033B814FF00003FB8010
:1047500007F104030F481946FFF796FB0D484FF089
:104760000101FFF7C1FB094B084A126942F001023F
:104770001A614FF00500FCF735FD044B4FF00202C3
:104780005A6107F12007BD4680BD00BF0008014007
:1047900040420F000044004080B485B000AF0246A4
:1047A0000B46FA71BB714FF00003FB81FB794FEAB6
:1047B0000313DAB2FB794FEA1313DBB2DBB242EA3E
:1047C0000303DBB27B737B7B03F033034FEA83038A
:1047D000DAB27B7B03F0CC034FEAA303DBB242EAFD
:1047E0000303DBB27B737B7B03F055034FEA430388
:1047F000DAB27B7B03F0AA034FEA6303DBB242EA3F
:104800000303DBB27B737B7B9BB24FEA4303FB81E9
:10481000BB79002B03D0FB8943F00103FB810A4ADB
:10482000FB894FEAC3534FEAD3539BB2938000BF37
:10483000054B1B889BB203F08003002BF8D007F1D7
:104840001407BD4680BC70470044004080B500AFEF
:104850004FF0E2004FF00001FFF79EFF4FF0C8005D
:10486000FCF7F0FC4FF0AF004FF00001FFF794FFB2
:104870004FF02F004FF00001FFF78EFF4FF0A40024
:104880004FF00001FFF788FF4FF040004FF00001AC
:10489000FFF782FF4FF00E0000F004F800F05AF826
:1048A00080BD00BF80B582B000AF0346FB71FB79CD
:1048B00003F01F03FB71FB7963F07F03DBB2184643
:1048C0004FF00001FFF768FF07F10807BD4680BD04
:1048D00080B582B000AF4FF0B0004FF00001FFF79D
:1048E0005BFF4FF010004FF00001FFF755FF4FF056
:1048F00000004FF00001FFF74FFF4FF00003BB71C6
:104900001EE04FF00003FB7113E0FA79B87910490B
:1049100013464FEAC3039B181B18CB181B78DBB256
:1049200018464FF00101FFF737FFFB7903F1010350
:10493000FB71FB795F2BE8D9BB7903F10103BB71F4
:10494000BB79082BDDD907F10807BD4680BD00BF44
:104950002420002080B483B000AF4FF00003FB712F
:104960001AE04FF00003BB710FE0BA79F8791249F1
:1049700013464FEAC3039B181B18CB184FF00002D5
:104980001A70BB7903F10103BB71BB795F2BECD9C2
:10499000FB7903F10103FB71FB79082BE1D9074B8C
:1049A0004FF000021A70064B4FF000021A7007F128
:1049B0000C07BD4680BC70472420002084230020C3
:1049C0002120002080B483B000AF02460B46FA716C
:1049D000BB71054BFA791A70044BBA791A7007F15A
:1049E0000C07BD4680BC7047842300202120002096
:1049F00080B400AF064B4FF000021A70054B1B78D5
:104A000003F10103DAB2034B1A70BD4680BC704754
:104A10008423002021200020B0B485B000AF0346DD
:104A2000FB71FB790A2B0BD13D4B4FF000021A7042
:104A30003C4B1B7803F10103DAB23A4B1A706AE07F
:104A40004FF00003FB7345E0374B1B78002B1DD163
:104A5000334B1B781A46FB7BD218324B1B781C4613
:104A6000F979FD7B31480B464FEA43035B184FEA67
:104A700043035B19C31819782D4813464FEAC30343
:104A80009B181B19C3180A461A701FE0244B1B7889
:104A90001A46FB7BD218234B1B781C46F979FD7B09
:104AA00022480B464FEA43035B184FEA43035B1966
:104AB000C3181B7883F07F03D9B21D4813464FEA11
:104AC000C3039B181B19C3180A461A70FB7B03F11A
:104AD0000103FB73FB7B052BB6D9114B1B7803F14C
:104AE0000603DAB20E4B1A700D4B1B785F2B12D9EE
:104AF0000B4B4FF000021A700A4B1B7803F10103B5
:104B0000DAB2084B1A70074B1B78082B03D9054BF8
:104B10004FF000021A7007F11407BD46B0BC704791
:104B2000842300202120002020200020AC00002031
:104B30002420002080B584B000AF0346FB804FF0F6
:104B40000003FB73FA884B4BA3FB02134FEA53336A
:104B50009BB2BB73BB7B002B09D0BB7B03F1300343
:104B6000DBB21846FFF758FF4FF00103FB73FB88D9
:104B7000404AA2FB03124FEA523242F2107101FB8B
:104B800002F29B1AFB80FA883B4BA3FB02134FEA0D
:104B900093139BB2BB73BB7B002B02D1FB7B002B1F
:104BA00009D0BB7B03F13003DBB21846FFF734FFBB
:104BB0004FF00103FB73FB882F4AA2FB03124FEA5D
:104BC00092124FF47A7101FB02F29B1AFB80FA8871
:104BD0002A4BA3FB02134FEA53139BB2BB73BB7B5D
:104BE000002B02D1FB7B002B09D0BB7B03F13003F0
:104BF000DBB21846FFF710FF4FF00103FB73FB8891
:104C00001E4AA2FB03124FEA52124FF0640101FB4D
:104C100002F29B1AFB80FA88194BA3FB02134FEA9E
:104C2000D3039BB2BB73BB7B002B02D1FB7B002B5E
:104C300006D0BB7B03F13003DBB21846FFF7ECFE76
:104C4000FA880F4BA3FB02134FEAD3010B464FEA3E
:104C500083035B184FEA4303D31AFB80FB88DBB264
:104C600003F13003DBB21846FFF7D6FE07F1100759
:104C7000BD4680BD5917B7D1D34D62101F85EB518A
:104C8000CDCCCCCC80B584B000AF0346FB71FB79B2
:104C90004FEA1313FB73FB7B092B07D8FB7B03F154
:104CA0003003DBB21846FFF7B7FE06E0FB7B03F1EB
:104CB0003703DBB21846FFF7AFFEFB7903F00F03B3
:104CC000FB73FB7B092B07D8FB7B03F13003DBB2C3
:104CD0001846FFF7A1FE06E0FB7B03F13703DBB2CA
:104CE0001846FFF799FE07F11007BD4680BD00BFCB
:104CF00080B584B000AF0346FB80FB884FEA1333D6
:104D00009BB2FB73FB7B092B07D8FB7B03F13003C2
:104D1000DBB21846FFF780FE06E0FB7B03F13703AA
:104D2000DBB21846FFF778FEFB8803F470634FEAA6
:104D30002323FB73FB7B092B07D8FB7B03F1300399
:104D4000DBB21846FFF768FE06E0FB7B03F1370392
:104D5000DBB21846FFF760FEFB8803F0F0034FEA72
:104D60002313FB73FB7B092B07D8FB7B03F1300379
:104D7000DBB21846FFF750FE06E0FB7B03F137037A
:104D8000DBB21846FFF748FEFB88DBB203F00F03E7
:104D9000FB73FB7B092B07D8FB7B03F13003DBB2F2
:104DA0001846FFF739FE06E0FB7B03F13703DBB261
:104DB0001846FFF731FE07F11007BD4680BD00BF62
:104DC00080B584B000AF78607B684FEA1343FB8105
:104DD000FB891846FFF78CFF7B68FB81FB8918462F
:104DE000FFF786FF07F11007BD4680BD80B584B090
:104DF00000AF78604FF00003FB73FB7B7A68D31839
:104E00001B78BB73BB7B002B08D0BB7B1846FFF71E
:104E100003FEFB7B03F10103FB73EEE700BF07F129
:104E20001007BD4680BD00BF80B58AB000AF4FF00F
:104E300000037B628B4B1B689AB28B4B1A808A4BA8
:104E40001B889BB203F40072884B1B8802EA0303A1
:104E5000002B0DD0834B4FF6FF521A60844B1B780A
:104E6000DBB203F10103DAB2814B1A70FFF76AFA81
:104E70007D4B1B889BB203F400427C4B1B8802EAEB
:104E80000303002B01D0FCF7A9FA774B1B889BB2D8
:104E900003F48062754B1B8802EA0303002B06D0E3
:104EA000704B4FF6FF321A60724B5B6898476E4B3F
:104EB0001B889BB203F400526C4B1B8802EA03036D
:104EC000002B03D0674B4DF6FF721A60664B1B88B0
:104ED0009BB203F48052654B1B8802EA0303002B4C
:104EE00007D0604B4EF6FF721A604FF00000FDF7DE
:104EF000CFFD5D4B1B889BB203F400625B4B1B88AC
:104F000002EA0303002B13D05B4B1B78DBB2002BB0
:104F100006D05A4B1B68052B02D1FDF7E5FC03E0D8
:104F20004FF00200FDF7B4FD4E4B4FF2FF721A60D6
:104F30004D4B1B889BB203F480724C4B1B8802EADA
:104F40000303002B00F08980464B4FF6FF621A6086
:104F50004B4B1B689BB21BB2002B76DA494B1B688C
:104F600003F10102474B1A60464B1B68032B70D9B3
:104F7000454B1B689BB203F00803002B69D1424BE1
:104F80001B689BB21A46414B1A604FF000037B62CC
:104F900015E07B6A4FEA830303F1804303F5B843CE
:104FA0001B689BB21A467B6A4FEA830307F128010C
:104FB000CB1843F8242C7B6A03F101037B627B6AE4
:104FC000072BE6D9314B1B6843F001022F4B1A60C7
:104FD0002D4B2E4A126892B21A602C4B1B6823F09C
:104FE00001022A4B1A60284B284A126892B21A60B2
:104FF00000BF1C4B1B689BB203F48063002BF8D0EE
:10500000184B4FF6FF321A604FF000037B6214E03A
:105010007B6A4FEA830303F1804303F5B8437A6A5E
:105020004FEA820207F128018A1852F8242C92B222
:105030001A607B6A03F101037B627B6A072BE7D965
:10504000104B4FF000021A6003E00E4B4FF00002CD
:105050001A604FF00700FDF71BFD07F12807BD465A
:1050600080BD00BF445C004086230020D417002090
:105070004C07002028000020140700201007002003
:10508000485C004050070020405C0040540700206E
:105090001201000202000040830440570002010296
:1050A0000301000009024300020100C032090400AC
:1050B0000001020201000524001001052401000185
:1050C000042402020524060001070582030800FFEC
:1050D00009040100020A0000000705030240000065
:1050E0000705810240000000040309042603530061
:1050F00054004D006900630072006F0065006C0091
:1051000065006300740072006F006E006900630048
:10511000730000003203530054004D00330032008E
:1051200020005600690072007400750061006C0078
:10513000200043004F004D00200050006F0072001F
:10514000740020002000000048656C6C6F0A0000AD
:105150001A03530054004D003300320000000000D9
:1051600000000000000000000000000000C201007C
:105170000000080004010000A1240008CD2400085C
:10518000492600086926000875260008052700083A
:10519000D9270008492700086D2700089127000833
:1051A00000000000400000009511000805260008DE
:1051B0009511000895110008951100089511000837
:1051C000951100089511000831260008905000083C
:1051D00012000000A450000843000000E85000083E
:1051E00004000000EC5000082600000014510008E4
:1051F00032000000000000201A000000FFFFFFFF47
:10520000FFFFFFFFFFFFFFFF60787E786000061E54
:105210007E1E0600040E150404000404150E04008E
:10522000000030787E78040A04110E000000F0F8C7
:1052300018181818F8F0000000000F1F1818181898
:105240001F0F00000000FFFF0000181818181818A2
:105250000C0C3F3F0C0C000000FFFF18181818FF43
:10526000FF00181818F8F8181818181F1F1800F859
:1052700004020202020204F8F000000F1020606035
:105280006060703F1F0000FF00000000000000FF92
:10529000FF00020202020202606060606060081C9F
:1052A0003E7F1C1C1C1C7F3E1C083F3F3F3F3F3F76
:1052B00002020202FF00020202FEFE0200000000E3
:1052C00000000000170000000003000300000A1F98
:1052D0000A1F0A0012151F150900130B041A1900E2
:1052E00008161D11080000000300000000000E1148
:1052F000000000110E000000140C0F0C1400040438
:105300001F0404000010080000000404040404004A
:105310000000181800001008040201001F111111EC
:105320001F0010121F1010001D1515151700151560
:1053300015151F00070404041F00171515151D007F
:105340001F1515151D00010101011F001F15151561
:105350001F00171515151F0000000A00000000109F
:105360000A00000000040A110000000A0A0A0000F6
:1053700000110A0400000001150502000E111717A4
:1053800016001E0909091E001F1515150A000E1129
:1053900011110A001F1111110E001F15151515000E
:1053A0001F05050505000E1111150C001F0404044E
:1053B0001F0011111F111100081111110F001F04FE
:1053C0000A1111001F10101010001F021C021F00F4
:1053D0001F0204081F000E1111110E001F090909F8
:1053E00006000E1119112E001F05050D12001215D1
:1053F0001515090001011F0101000F1010100F0009
:105400000708100807000F100C100F00110A040AFB
:10541000110001021C0201001119151311000000F6
:105420001F11000001020408100000111F000000FD
:105430000402010204000040404040400000020617
:105440000E08181A1A1E10001F14141408000C124B
:1054500012121200081414141F000C161616140051
:1054600010141E151500242A2A2A1E001F040404E5
:10547000180010141D101000102222221E00001F00
:105480000814140010111F1010001E021C021C0032
:105490001E0402021C000C1212120C001E0A0A0A40
:1054A0000400040A0A0A3E00121E1412120000240C
:1054B0002A2A1200020F121208000E10100E1000FD
:1054C0000608100806000E100C100E0012120C1226
:1054D0001200262828281E00121A16161200000490
:1054E0001E212100000000007E000021211E04007A
:1054F00000020102010000007E7E7E7E00060F0F8A
:1055000006000050300050300040004000400000D5
:105510000102060606060606060606060703010041
:105520000F0F0F0900000000090F0F0F0606060FEE
:105530000F0F0F0F0F0606060606060606061F1FAC
:105540001F11000000111F1F1F1F1F1F1F1F1F1FE4
:1055500000000000000100007E7E7E7E0000000052
:1055600000FCFC3000000000848484848484FCFC03
:10557000FCFCFCFC00007E7E7E7E00000018180013
:1055800000001010100000101010101000007E7E9F
:105590007E7E00020E020E04C0F0FC7F1F07030F88
:1055A0003FFEF8E01F1F1F111F041F1F1F1F1F04B6
:1055B00001030707030102060E0E0602040C1C1C61
:1055C0000C0408183838180810307070301020603B
:1055D000E0E0602000007E7E7E7E00007E7E7E7E9B
:1055E00000000076000000204C5A5A321F14151497
:1055F0001500007E425A5A4200007E7E7E7E0010D8
:105600002844102820707020306CACA020F8702046
:1056100078FC78FC78FC78004830480078484848A6
:10562000484848484848484848484848487800005A
:105630000C12120C000048487E4878787878787808
:1056400000307868300078FCFCF4FC78000000083A
:1056500000000C1716171400007E04087E58000086
:105660007E7E7E7E00007E7E7E7E00007E7E7E7E52
:105670002412241224122A7F7F7F7F2A1E090909FF
:105680001E001F15151508001F1515150A001F010E
:1056900001010100301E111F30001F1515151500E6
:1056A0001B041F041B000A1115150A001F08040221
:1056B0001F001F0805021F001F040A1111001C0211
:1056C00001011F001F021C021F001F0404041F0011
:1056D0000E1111110E001F0101011F001F09090900
:1056E00006000E1111110A0001011F01010003142F
:1056F00014140F0006091F090600110A040A1100FC
:105700001F10101F3000070808081F001F101F106F
:105710001F001F101C103F00011F141408001F144D
:1057200014081F001F1414140800111515150E007D
:105730001F040E110E00120D05051F00102A2A1C51
:1057400020001C2A2A2A11003C2A2A2A14000012AE
:105750001E120600301C121E30001C2A2A2A2C00A1
:105760001A041E041A0024222A2A14000E101008FB
:105770001E000E1011091E00001F0814140018044A
:1057800002021E001E021C021C001E0808081E0049
:105790000C1212120C001E0202021E003E0A0A0A1D
:1057A00004000C121212140006121E120600262803
:1057B00028281E00040A3E0A040012120C121200CD
:1057C0001E10101E3000060808081E001E101C10B7
:1057D0001E001E101C103E00021E141408001E1491
:1057E00008001E001E141414080020222A2A1C007F
:1057F0001E040C120C00241A0A0A3E0000000000CD
:105800000102030401020304060708090204060852
:10581000954200089511000895110008951100089F
:1058200095110008951100089511000895110008C0
:1058300095110008614200089511000895110008B3
:08584000951100089511000804
:0400000508000000EF
:00000001FF
